S018000057524C5F53656E736F726B6E6F74656E2E73726563AF
S1130000B5C00000CEC00000CCC00000CAC00000D3
S1130010C8C00000C6C00000C4C00000C2C00000C8
S1130020C0C00000BEC0000039C4000057C40000B6
S1130030B8C00000B6C00000B4C00000B2C00000E8
S1130040B0C00000AEC00000ACC00000AAC00000F8
S1130050A8C00000A6C00000A4C00000A2C0000008
S1130060A0C000009EC000009CC000009AC0000018
S113007098C0000096C0000094C0000092C0000028
S113008090C000008EC000008CC000008AC0000038
S113009088C0000086C0000084C0000082C0000048
S11300A080C000007EC000007CC000007AC0000058
S11300B078C0000076C0000074C0000072C0000068
S11300C070C000006EC000006CC000006AC0000078
S11300D068C0000066C0000064C0000062C0000088
S11300E060C000005EC000005CC000005AC0000098
S11300F058C0000056C0000054C0000052C00000A8
S113010050C000004EC000004CC000004AC00000B7
S113011048C0000046C0000044C0000042C00000C7
S113012040C000003EC000003CC000003AC00000D7
S113013038C0000036C0000034C0000032C00000E7
S113014030C000002EC000002CC000002AC00000F7
S113015028C0000026C0000024C0000022C0000007
S113016020C000001EC000001CC0000011241FBEDF
S1130170CFEFCDBFDFE2DEBF10E2A0E0B0E2E8E304
S1130180FCE002C005900D92A030B107D9F720E23F
S1130190A0E0B0E201C01D92A830B207E1F752D24C
S11301A049C52ECFCF93DF93CDB7DEB780E092E081
S11301B0FC01118280E092E020E1FC01228380E0D6
S11301C092E022E0FC01248380E092E021E0FC0143
S11301D020830000DF91CF910895CF93DF93CDB7B3
S11301E0DEB76397CDBFDEBF8A8B9B8B198290D01D
S11301F0882309F486C063E283E29ED189838981DE
S1130200882309F47EC080E090E0A0ECB1E48A8306
S11302109B83AC83BD8320E030E04AEF53E46A81E2
S11302207B818C819D817BD4DC01CB018E839F8378
S1130230A887B98720E030E040E85FE36E817F81E2
S113024088859985EBD388232CF481E090E08A8714
S11302509B873BC020E03FEF4FE757E46E817F81EF
S11302608885998558D418163CF520E030E040E2A2
S113027051E46A817B818C819D8151D4DC01CB0165
S1130280BC01CD01CFD3DC01CB018A879B870FC092
S113029082E390E08C879D878C859D850197F1F79B
S11302A08C879D878A859B8501978A879B878A850A
S11302B09B85892B69F713C06E817F818885998519
S11302C0B1D3DC01CB018A879B878A859B858E8786
S11302D09F878E859F850197F1F78E879F87CE0133
S11302E0409622E030E0AC0167E483E248D121E0AB
S11302F0892B09F420E0298328898A899B89FC01B8
S1130300208389816396CDBFDEBFDF91CF910895AD
S1130310CF93DF93CDB7DEB761E083E20DD1DF91F8
S1130320CF910895CF93DF9300D0CDB7DEB7898303
S11303306A838981880F89838A819981890F898356
S113034080E894E02981FC012683000080E894E0A1
S1130350FC018481882F90E080749927892B31F4E3
S113036080E894E0FC018481882384F780E894E0A9
S1130370FC018481882F90E08071992721E0892BEA
S113038009F020E0822F0F900F90DF91CF91089514
S1130390CF93DF93CDB7DEB780E894E023E0FC0190
S11303A023830000DF91CF910895CF93DF93CDB7DE
S11303B0DEB780E894E027E0FC0123830000DF91AE
S11303C0CF910895CF93DF931F92CDB7DEB7898382
S11303D080E894E02981FC012783000080E894E010
S11303E0FC018481882F90E080749927892B31F453
S11303F080E894E0FC018481882384F780E894E019
S1130400FC018481882F90E08071992721E0892B59
S113041009F020E0822F0F90DF91CF910895CF93C0
S1130420DF93CDB7DEB780E894E022E0FC012383BC
S11304300000DF91CF910895CF93DF9300D0CDB723
S1130440DEB789839A83000080E894E0FC0184810C
S1130450882F90E080749927892B31F480E894E008
S1130460FC018481882384F780E894E0FC012781DF
S113047089819A81FC01208380E894E0FC018481D5
S1130480882F90E084709927892B51F080E894E0BC
S1130490FC018481882F90E080749927892B19F4BA
S11304A081E090E002C080E090E081700F900F90B6
S11304B0DF91CF910895CF93DF93CDB7DEB726D0E8
S11304C080E496E020E436E0F90120892861FC010B
S11304D0208B80E496E020E436E0F901218928614C
S11304E0FC01218B80E894E025E0FC01258380E871
S11304F094E028E0FC01218380E894E021E0FC0101
S113050024830FD00000DF91CF910895CF93DF9320
S1130510CDB7DEB760E483E079D10000DF91CF91FD
S11305200895CF93DF93CDB7DEB760E483E093D132
S11305300000DF91CF910895CF93DF9300D0CDB722
S1130540DEB789836A8360E08981ECDE982F81E0DD
S11305508927882319F01CDF80E00CC08A8132DFF0
S1130560982F81E08927882319F012DF80E002C0E8
S11305700FDF81E00F900F90DF91CF910895CF931B
S1130580DF93CDB7DEB72897CDBFDEBF8B836C83F7
S11305904D835E832F83388719821A8260E08B81B2
S11305A0C1DE982F81E08927882321F0F1DE80E0E5
S11305B090E042C08C8106DF982F81E08927882350
S11305C021F0E6DE80E090E037C061E08B81AADEB6
S11305D0982F81E08927882321F0DADE80E090E0FB
S11305E02BC019821A821CC02D813E8189819A8177
S11305F0820F931F21DF982F81E089278823C1F47C
S113060089819A819C012F5F3F4F8F81988528179C
S1130610390709F004DF89819A81019689839A83D5
S113062029813A818F81988528173907E8F201C01A
S11306300000BBDE89819A812896CDBFDEBFDF91A1
S1130640CF910895CF93DF93CDB7DEB76197CDBF38
S1130650DEBF19821A82198AAFD0A4DD2CDF56DFDF
S1130660CE014196BADD80E090E0A8E4B3E48B8348
S11306709C83AD83BE8320E030E04AEF53E46B817A
S11306807C818D819E814BD2DC01CB018F83988745
S1130690A987BA8720E030E040E85FE36F8178857E
S11306A089859A85BBD188232CF481E090E08B87DF
S11306B09C873BC020E03FEF4FE757E46F8178858C
S11306C089859A8528D218163CF520E030E040E26E
S11306D051E46B817C818D819E8121D2DC01CB012F
S11306E0BC01CD019FD1DC01CB018B879C870FC05E
S11306F082E390E08D879E878D859E850197F1F733
S11307008D879E878B859C8501978B879C878B859E
S11307109C85892B69F713C06F81788589859A85B3
S113072081D1DC01CB018B879C878B859C858F874E
S1130730988B8F8598890197F1F78F87988B90CF45
S1130740CF93DF931F92CDB7DEB78FE390E0FC0128
S113075080818983F89489810F90DF91CF910895E6
S1130760CF93DF931F92CDB7DEB789838FE390E0F9
S11307702981FC01208300000F90DF91CF9108951F
S1130780CF93DF9300D0CDB7DEB78A83D9DF8983D7
S113079080E590E020E530E0F9012081322F2A81C4
S11307A020952323FC0120838981DADF00000F9048
S11307B00F90DF91CF910895CF93DF9300D000D0B5
S11307C0CDB7DEB780E790E089839A831C821B82D1
S11307D00DC089819A819C012F5F3F4F29833A8301
S11307E02FEFFC0120838B818F5F8B838B8187307C
S11307F080F381E08C838C81882311F481E0C0DF55
S11308002496CDBFDEBFDF91CF910895CF93DF93C0
S113081000D01F92CDB7DEB78A836B8391DF8983C3
S11308208A81882F90E080599F4F2A81222F30E0BF
S113083020593F4FF9012081322F2B81209523230A
S1130840FC01208389818CDF00002396CDBFDEBFAD
S1130850DF91CF910895CF93DF9300D01F92CDB74E
S1130860DEB78A836B836CDF89838A81882F90E06B
S113087080599F4F2A81222F30E020593F4FF901A0
S113088030812B81232BFC012083898169DF0000C7
S11308902396CDBFDEBFDF91CF9108951F920F92B3
S11308A000903F000F9211248F939F93CF93DF9377
S11308B0CDB7DEB7809100209091012001968093FE
S11308C00020909301200000DF91CF919F918F91A0
S11308D00F9000923F000F901F9018951F920F9257
S11308E000903F000F9211242F933F934F935F93F7
S11308F06F937F938F939F93AF93BF93EF93FF93E4
S1130900CF93DF93CDB7DEB72897CDBFDEBF20915D
S1130910002030910120809102209091032028171B
S1130920390708F463C080E094E021E0FC012283ED
S11309308091062090910720892B09F457C080915B
S1130940002090910120CC01A0E0B0E0AC0133275D
S1130950222780E094E0FC0180859185CC01A0E011
S1130960B0E0822B932BA42BB52B89839A83AB8382
S1130970BC838091022090910320CC01A0E0B0E0E0
S1130980AC01332722278091042090910520CC01CB
S1130990A0E0B0E0822B932BA42BB52B8D839E83F8
S11309A0AF83B8872D813E814F81588589819A8193
S11309B0AB81BC81281739074A075B0758F08D8142
S11309C09E81AF81B8850196A11DB11D89839A834B
S11309D0AB83BC83209106203091072089819A81C2
S11309E0AB81BC81BC01CD01F901099500002896B9
S11309F0CDBFDEBFDF91CF91FF91EF91BF91AF915A
S1130A009F918F917F916F915F914F913F912F9122
S1130A100F9000923F000F901F9018952FD008F46C
S1130A2081E0089557D088F09F5790F0B92F992707
S1130A30B751A0F0D1F0660F771F881F991F1AF0E5
S1130A40BA95C9F712C0B13081F05ED0B1E0089513
S1130A505BC0672F782F8827B85F39F0B93FCCF394
S1130A60869577956795B395D9F73EF490958095DB
S1130A70709561957F4F8F4F9F4F0895990F000890
S1130A80550FAA0BE0E8FEEF16161706E807F9075C
S1130A90C0F012161306E407F50798F0621B730BF7
S1130AA0840B950B39F40A2661F0232B242B252B78
S1130AB021F408950A2609F4A140A6958FEF811D1B
S1130AC0811D089557FD9058440F551F59F05F3FFD
S1130AD071F04795880F97FB991F61F09F3F79F05C
S1130AE087950895121613061406551FF2CF4695DE
S1130AF0F1DF08C0161617061806991FF1CF869560
S1130B007105610508940895E894BB276627772743
S1130B10CB0197F90895B2DF08F48FEF08950BD055
S1130B2078C069D028F06ED018F0952309F05AC027
S1130B305FC01124EACFC6DFA0F3959FD1F3950FD0
S1130B4050E0551F629FF001729FBB27F00DB11D4D
S1130B50639FAA27F00DB11DAA1F649F6627B00DDD
S1130B60A11D661F829F2227B00DA11D621F739FC6
S1130B70B00DA11D621F839FA00D611D221F749FD4
S1130B803327A00D611D231F849F600D211D822F1B
S1130B90762F6A2F11249F5750408AF0E1F0882362
S1130BA04AF0EE0FFF1FBB1F661F771F881F91506F
S1130BB05040A9F79E3F510570F014C0A6CF5F3F87
S1130BC0ECF3983EDCF3869577956795B795F795A2
S1130BD0E7959F5FC1F7FE2B880F911D969587952A
S1130BE097F9089597F99F6780E870E060E00895A9
S1130BF09FEF80EC089500240A9416161706180631
S1130C000906089500240A9412161306140605060C
S1130C100895092E0394000C11F4882352F0BB0F9D
S1130C2040F4BF2B11F460FF04C06F5F7F4F8F4F00
S10B0C309F4F0895F894FFCFD3
S9030000FC
