S010000056657273756368312E7372656303
S11300000C94FC000C9422010C94B2010C94220177
S11300100C9422010C9422010C9422010C942201D0
S11300200C9422010C9422010C9422010C942201C0
S11300300C9422010C9422010C9422010C942201B0
S11300400C9422010C9422010C9422010C942201A0
S11300500C9422010C9422010C9422010C94220190
S11300600C9422010C9422010C9422010C94220180
S11300700C9466010C9422010C9422010C9422012C
S11300800C9422010C9422010C9422010C94220160
S11300900C9422010C9422010C9422010C94220150
S11300A00C9422010C9422010C9422010C94220140
S11300B00C9422010C9422010C9422010C94220130
S11300C00C9422010C9422010C9422010C94220120
S11300D00C9422010C9422010C9422010C94220110
S11300E00C9422010C9422010C9422010C94220100
S11300F00C9422010C9422010C9422010C942201F0
S11301000C9422010C9422010C9422010C942201DF
S11301100C9422010C9422010C9422010C942201CF
S11301200C9422010C9422010C9422010C942201BF
S11301300C9422010C9422010C9422010C942201AF
S11301400C9422010C9422010C9422010C9422019F
S11301500C9422010C9422010C9422010C9422018F
S11301600C9422010C9422010C9422010C9422017F
S11301700C9422010C9422010C9422010C9422016F
S11301800C9422010C9422010C9422010C9422015F
S11301900C9422010C9422010C9422010C9422014F
S11301A00C9422010C9422010C9422010C9422013F
S11301B00C9422010C9422010C9422010C9422012F
S11301C00C9422010C9422010C9422010C9422011F
S11301D00C9422010C9422010C9422010C9422010F
S11301E00C9422010C9422010C9422010C942201FF
S11301F00C9422010C94610111241FBECFEFCDBFDA
S1130200DFE3DEBF00E00CBF18BE19BE1ABE1BBE82
S113021010E2A0E0B0E2ECE0FBE000E00BBF02C0C3
S113022007900D92A034B107D9F71BBE20E2A0E4D9
S1130230B0E201C01D92A734B207E1F70E941B028D
S11302400C9484050C940000E0E0F2E0118280E15B
S1130250828382E0848381E080830895FC0181E0CD
S11302608083660F660F660F618380818068808358
S113027093819923E9F3848195810895E0EBF8E073
S113028017828CE0868380E3838388E0848383E021
S1130290858380E88093400680E090E28093432049
S11302A090934420E0EAF0E082818760828378942E
S11302B00895E0EBF8E0918195FFFDCF8093B008BD
S11302C008950E94590180E090E008951F920F92D2
S11302D00FB60F92112408B60F9218BE09B60F92EA
S11302E019BE0BB60F921BBE2F933F934F935F9390
S11302F06F937F938F939F93AF93BF93EF93FF93EA
S11303008EE090E20E94A0022FEF84E39CE0215053
S113031080409040E1F700C00000FF91EF91BF9151
S1130320AF919F918F917F916F915F914F913F9189
S11303302F910F900BBE0F9009BE0F9008BE0F9027
S11303400FBE0F901F901895E0E4F6E089E1818BD1
S113035082E082878187E0EAF0E08281876082839D
S1130360789408951F920F920FB60F92112408B635
S11303700F9218BE09B60F9219BE0BB60F921BBE90
S11303802F933F934F935F936F937F938F939F9399
S1130390AF93BF93EF93FF9361E070E084E490E048
S11303A00E94FD01809140208F5F833619F0809375
S11303B0402002C010924020FF91EF91BF91AF9175
S11303C09F918F917F916F915F914F913F912F9169
S11303D00F900BBE0F9009BE0F9008BE0F900FBE7A
S11303E00F901F9018958091402008958FEF80936F
S11303F060068DEF809340060895843469F4E0E646
S1130400F6E0278181E090E002C0880F991F6A9589
S1130410E2F7822B87830895833461F4E0E4F6E005
S1130420278181E090E002C0880F991F6A95E2F766
S1130430822B87830895CF93DF931F921F92CDB7AA
S1130440DEB70E943E010E94F6010E94A4010E94B0
S1130450240119821A820F2EF4E18F2EF0E29F2ECE
S1130460F02D0F2EFFE1CF2EF0E2DF2EF02D0F2E18
S1130470F2E2EF2EF0E2FF2EF02D0FE310E20F2E4A
S1130480F5E2AF2EF0E2BF2EF02D0F2EFAE26F2E22
S1130490F0E27F2EF02D0F2EF9E34F2EF0E25F2EC7
S11304A0F02D63E080E292E00E942E0189839A831A
S11304B09F928F92DF92CF920E948C0289819A81BF
S11304C09F938F93FF92EF920E948C021F930F933E
S11304D0BF92AF920E948C027F926F92DF92CF9272
S11304E00E948C020E94F3011F928F93FF92EF925D
S11304F00E948C021F930F935F924F920E948C0272
S11305002FEB87E299E0215080409040E1F700C052
S11305100000CDBFDEBFC5CFCF93DF93CDB7DEB72D
S1130520AE014A5F5F4FFA0161917191AF01809111
S11305304320909144200E94D002DF91CF910895EE
S11305400F931F93CF93DF93E0914320F0914420C6
S1130550238121FF1BC08C01D0E0C0E0F801819110
S11305608F016091432070914420DB011896ED9136
S1130570FC911997882331F01995892B79F3DFEFD2
S1130580CFEFECCF8AE01995892B19F08FEF9FEF0D
S113059002C08D2F9C2FDF91CF911F910F91089551
S11305A02F923F924F925F926F927F928F929F927F
S11305B0AF92BF92CF92DF92EF92FF920F931F936D
S11305C0CF93DF93CDB7DEB72B97CDBFDEBF6C01E2
S11305D07B018A01FC0116821782838181FFCCC1D1
S11305E0CE0101963C01F6019381F70193FD8591BB
S11305F093FF81917F01882309F4BAC1853239F4CC
S113060093FD859193FF81917F01853229F4B60191
S113061090E00E94EA04E7CF912C212C312CFFE1D9
S1130620F315D8F08B3279F038F4803279F08332D4
S1130630A1F4232D20611DC08D3261F0803369F453
S1130640232D216016C0832D8260382EE32DE460B3
S11306503E2E2AC0F32DF8601DC037FC2DC020EDBE
S1130660280F2A3040F08E32B9F436FC81C1232D94
S11306702064322E19C036FE06C08AE0989E200DF2
S11306801124922E11C0EAE02E9E200D1124222E58
S1130690F32DF0623F2E08C08C3621F4832D806840
S11306A0382E02C0883641F4F70193FD859193FFFB
S11306B081917F018111B3CF982F9F7D9554933001
S11306C028F40C5F1F4F9FE399830DC0833631F0EC
S11306D0833771F0833509F059C021C0F801808156
S11306E089830E5F1F4F88248394912C530113C078
S11306F02801F2E04F0E511CF801A080B18036FEB3
S113070003C0692D70E002C06FEF7FEFC5010E9446
S1130710DF044C018201F32DFF773F2E16C0280120
S113072022E0420E511CF801A080B18036FE03C0C5
S1130730692D70E002C06FEF7FEFC5010E94D40401
S11307404C01F32DF0683F2E820133FC1BC0822D37
S113075090E088169906B0F4B60180E290E00E9419
S1130760EA042A94F4CFF50137FC859137FE819190
S11307705F01B60190E00E94EA0421102A9421E06E
S1130780821A91088114910471F7E8C0843611F03B
S1130790893641F5F80137FE07C060817181828195
S11307A093810C5F1F4F08C060817181072E000C7C
S11307B0880B990B0E5F1F4FF32DFF763F2E97FF8B
S11307C009C090958095709561957F4F8F4F9F4F8D
S11307D0F0683F2E2AE030E0A3010E942605882E0F
S11307E0861845C0853731F4232D2F7EB22E2AE09A
S11307F030E025C0932D997FB92E8F36C1F018F4BF
S1130800883579F0B5C0803719F0883721F0B0C049
S1130810E92FE061BE2EB4FE0DC0FB2DF460BF2EA7
S113082009C034FE0AC0292F2660B22E06C028E073
S113083030E005C020E130E002C020E132E0F80100
S1130840B7FE07C060817181828193810C5F1F4F65
S113085006C06081718180E090E00E5F1F4FA301AC
S11308600E942605882E8618FB2DFF773F2E36FE24
S11308700DC0232D2E7FA22E891458F434FE0BC0F4
S113088032FC09C0832D8E7EA82E05C0B82CA32C63
S113089003C0B82C01C0B92CA4FE0FC0FE01E80DA2
S11308A0F11D8081803321F49A2D997EA92E09C0EF
S11308B0A2FE06C0B394B39404C08A2D867809F0CE
S11308C0B394A3FC11C0A0FE06C0B21488F4280C93
S11308D0922C9B180EC0B21460F4B60180E290E032
S11308E00E94EA04B394F7CFB21418F42B1802C090
S11308F0982C212CA4FE10C0B60180E390E00E9445
S1130900EA04A2FE17C0A1FC03C088E790E002C07D
S113091088E590E0B6010CC08A2D867859F0A1FED6
S113092002C08BE201C080E2A7FC8DE2B60190E038
S11309300E94EA04891438F4B60180E390E00E942E
S1130940EA049A94F7CF8A94F301E80DF11D8081AB
S1130950B60190E00E94EA048110F5CF222009F448
S113096042CEB60180E290E00E94EA042A94F6CFD7
S1130970F6018681978102C08FEF9FEF2B96CDBF42
S1130980DEBFDF91CF911F910F91FF90EF90DF9029
S1130990CF90BF90AF909F908F907F906F905F901B
S11309A04F903F902F900895FC0105906150704046
S11309B00110D8F7809590958E0F9F1F0895FC0124
S11309C06150704001900110D8F7809590958E0F7A
S11309D09F1F08950F931F93CF93DF93FB012381F0
S11309E021FD03C08FEF9FEF2CC022FF16C046816C
S11309F05781248135814217530744F4A081B18182
S1130A009D012F5F3F4F208331838C932681378153
S1130A102F5F3F4F2683378314C08B01EC01FB010A
S1130A200084F185E02D1995892BE1F6D8011696FD
S1130A308D919C911797019616968D939C93179779
S1130A40CE01DF91CF911F910F910895FA01AA274A
S1130A50283051F1203181F1E8946F936E7F6E5FFD
S1130A607F4F8F4F9F4FAF4FB1E03ED0B4E03CD0AB
S1130A70670F781F891F9A1FA11D680F791F8A1F8E
S1130A80911DA11D6A0F711D811D911DA11D20D0F5
S1130A9009F468943F912AE0269F11243019305DAF
S1130AA03193DEF6CF010895462F4770405D4193A0
S1130AB0B3E00FD0C9F7F6CF462F4F70405D4A33ED
S1130AC018F0495D31FD4052419302D0A9F7EACFB5
S1130AD0B4E0A6959795879577956795BA95C9F7E4
S1130AE000976105710508959B01AC010A2E0694D7
S1130AF05795479537952795BA95C9F7620F731F90
S10F0B00841F951FA01D0895F894FFCFDA
S1130B0C0000000200000000610100000000746598
S1130B1C73740D004144432D576572743A200025BB
S1130B2C730025640025730A0D00436F756E74659C
S1130B3C722D576572743A200025730A0D0A0D0044
S9030000FC
