S012000057696E6473656E736F722E73726563E6
S11300000C94FE000C941B010C941B010C941B011A
S11300100C941B010C941B010C941B010C941B01EC
S11300200C941B010C941B010C941B010C941B01DC
S11300300C941B010C941B010C944A010C941B019D
S11300400C941B010C941B010C941B010C941B01BC
S11300500C941B010C941B010C941B010C941B01AC
S11300600C941B010C941B010C941B010C941B019C
S11300700C941B010C941B010C941B010C941B018C
S11300800C941B010C941B010C941B010C941B017C
S11300900C941B010C941B010C941B010C941B016C
S11300A00C941B010C941B010C941B010C941B015C
S11300B00C941B010C9427020C941B010C941B013F
S11300C00C941B010C941B010C941B010C941B013C
S11300D00C941B010C941B010C941B010C941B012C
S11300E00C941B010C941B010C941B010C941B011C
S11300F00C941B010C941B010C941B010C941B010C
S11301000C941B010C941B010C941B010C941B01FB
S11301100C941B010C941B010C941B010C941B01EB
S11301200C941B010C941B010C941B010C941B01DB
S11301300C941B010C941B010C941B010C941B01CB
S11301400C941B010C941B010C941B010C941B01BB
S11301500C941B010C941B010C941B010C941B01AB
S11301600C941B010C941B010C941B010C941B019B
S11301700C941B010C941B010C941B010C941B018B
S11301800C941B010C941B010C941B010C941B017B
S11301900C941B010C941B010C941B010C941B016B
S11301A00C941B010C941B010C941B010C941B015B
S11301B00C941B010C941B010C941B010C941B014B
S11301C00C941B010C941B010C941B010C941B013B
S11301D00C941B010C941B010C941B010C941B012B
S11301E00C941B010C941B010C941B010C941B011B
S11301F00C941B010C941B010C941B0111241FBEB5
S1130200CFEFCDBFDFE2DEBF10E2A0E0B0E2E0E47A
S1130210F8E002C005900D92A830B107D9F720E2AA
S1130220A8E0B0E201C01D92A531B207E1F70E9437
S113023043010C941E040C940000E0E5F0E080817E
S113024082608083818181FFFDCF88ED84BFE0E4FB
S1130250F0E091E0908384BF84E181830895E0E03D
S1130260F8E087E08083118287E290E086A397A379
S113027010A211A283E08683E0EAF0E08281876025
S11302808283789408950E941D010E94BF010E94F8
S11302902F01FFCF1F920F920FB60F9211242F93AD
S11302A03F934F935F936F937F938F939F93AF93FA
S11302B0BF93EF93FF9380910E2081110EC00E9493
S11302C0CB010E94C5026093132070931420809187
S11302D00E208F5F80930E2041C00E94CB010E94AC
S11302E0C502609311207093122010920E20609129
S11302F011207091122080911320909114200E945B
S1130300050280930C2090930D20BC01990F880B5B
S1130310990B0E94FD022091042030910520409108
S11303200620509107200E94530220910020309112
S1130330012040910220509103200E94890390588B
S113034026E636E646E650E40E945302609308200F
S11303507093092080930A2090930B20FF91EF91D2
S1130360BF91AF919F918F917F916F915F914F91C9
S11303703F912F910F900FBE0F901F901895E0E4BE
S1130380F6E080EB818380E18583E0ECF8E0808116
S113039084658083089580E18093470682E08A958E
S11303A0F1F700C0E0ECF8E08281138282818823B7
S11303B0ECF7E0ECF8E06381828113828281882388
S11303C0ECF78091C30892E09A95F1F700C090E1B0
S11303D09093470670E0660F771F660F771F82952C
S11303E0869586958370682B80E090E00E94FB02DE
S11303F020E030E040E85AE30E94890320E030E046
S113040044EB53E40E9489030895681B790B653B10
S1130410710544F0CB018856914068E671E00E9472
S1130420F60308956C348FEF780744F4CB018859B0
S11304309E4F68E671E00E94F6030895862F972F79
S11304400895E0EAF4E081858760818708951F922A
S11304500F920FB60F9211242F933F934F935F93F4
S11304606F937F938F939F93AF93BF93EF93FF9378
S11304700E94CB010E94CC0260930F207093102045
S11304800E942102FF91EF91BF91AF919F918F91B3
S11304907F916F915F914F913F912F910F900FBE7C
S11304A00F901F9018950E9467020C944F030E94AE
S11304B0480358F00E94410340F029F45F3F29F0BB
S11304C00C94380351110C9483030C943E030E9442
S11304D0600368F39923B1F3552391F3951B550BEE
S11304E0BB27AA2762177307840738F09F5F5F4F03
S11304F0220F331F441FAA1FA9F335D00E2E3AF042
S1130500E0E832D091505040E695001CCAF72BD059
S1130510FE2F29D0660F771F881FBB1F26173707AA
S11305204807AB07B0E809F0BB0B802DBF01FF27DC
S113053093585F4F3AF09E3F510578F00C9438037E
S11305400C9483035F3FE4F3983ED4F38695779548
S11305506795B795F7959F5FC9F7880F911D969595
S1130560879597F90895E1E0660F771F881FBB1FF1
S1130570621773078407BA0720F0621B730B840B9E
S1130580BA0BEE1F88F7E09508950E94CC02689498
S1130590B1110C94830308950E94680388F09F5757
S11305A098F0B92F9927B751B0F0E1F0660F771F93
S11305B0881F991F1AF0BA95C9F714C0B13091F089
S11305C00E948203B1E008950C948203672F782F70
S11305D08827B85F39F0B93FCCF38695779567954E
S11305E0B395D9F73EF490958095709561957F4FBA
S11305F08F4F9F4F0895E89409C097FB3EF4909560
S11306008095709561957F4F8F4F9F4F9923A9F0E7
S1130610F92F96E9BB279395F69587957795679576
S1130620B795F111F8CFFAF4BB0F11F460FF1BC0BA
S11306306F5F7F4F8F4F9F4F16C0882311F096E94D
S113064011C0772321F09EE8872F762F05C06623FB
S113065071F096E8862F70E060E02AF09A95660FB4
S1130660771F881FDAF7880F9695879597F908956D
S113067097F99F6780E870E060E008959FEF80EC51
S1130680089500240A9416161706180609060895F4
S113069000240A9412161306140605060895092E5A
S11306A00394000C11F4882352F0BB0F40F4BF2BC9
S11306B011F460FF04C06F5F7F4F8F4F9F4F089509
S11306C057FD9058440F551F59F05F3F71F04795FF
S11306D0880F97FB991F61F09F3F79F087950895E4
S11306E0121613061406551FF2CF4695F1DF08C003
S11306F0161617061806991FF1CF86957105610520
S113070008940895E894BB2766277727CB0197F9C7
S113071008950E949C030C944F030E94410338F0F7
S11307200E94480320F0952311F00C9438030C9494
S11307303E0311240C9483030E94600370F3959F7D
S1130740C1F3950F50E0551F629FF001729FBB27C4
S1130750F00DB11D639FAA27F00DB11DAA1F649F60
S11307606627B00DA11D661F829F2227B00DA11D13
S1130770621F739FB00DA11D621F839FA00D611D99
S1130780221F749F3327A00D611D231F849F600DBA
S1130790211D822F762F6A2F11249F5750409AF0E3
S11307A0F1F088234AF0EE0FFF1FBB1F661F771F6F
S11307B0881F91505040A9F79E3F510580F00C943A
S11307C038030C9483035F3FE4F3983ED4F3869597
S11307D077956795B795F795E7959F5FC1F7FE2BDA
S11307E0880F911D9695879597F9089597FB072E85
S11307F016F4009407D077FD09D00E940A0407FC80
S113080005D03EF4909581959F4F0895709561951C
S11308107F4F0895AA1BBB1B51E107C0AA1FBB1F32
S1130820A617B70710F0A61BB70B881F991F5A9578
S1130830A9F780959095BC01CD010895F894FFCF58
S10B08405839B43C0AD7233CEB
S9030000FC
