:100000000C94FE000C941B010C941B010C941B011E
:100010000C941B010C941B010C941B010C941B01F0
:100020000C941B010C941B010C941B010C941B01E0
:100030000C941B010C941B010C941B010C941B01D0
:100040000C941B010C941B010C941B010C941B01C0
:100050000C941B010C941B010C941B010C941B01B0
:100060000C941B010C941B010C941B010C941B01A0
:100070000C941B010C941B010C941B010C941B0190
:100080000C941B010C941B010C941B010C941B0180
:100090000C941B010C941B010C941B010C941B0170
:1000A0000C941B010C941B010C941B010C941B0160
:1000B0000C941B010C941A020C941B010C941B0150
:1000C0000C941B010C941B010C941B010C941B0140
:1000D0000C941B010C941B010C941B010C941B0130
:1000E0000C941B010C941B010C941B010C941B0120
:1000F0000C941B010C941B010C941B010C941B0110
:100100000C941B010C941B010C941B010C941B01FF
:100110000C941B010C941B010C941B010C941B01EF
:100120000C941B010C941B010C941B010C941B01DF
:100130000C941B010C941B010C941B010C941B01CF
:100140000C941B010C941B010C941B010C941B01BF
:100150000C941B010C941B010C941B010C941B01AF
:100160000C941B010C941B010C941B010C941B019F
:100170000C941B010C941B010C941B010C941B018F
:100180000C941B010C941B010C941B010C941B017F
:100190000C941B010C941B010C941B010C941B016F
:1001A0000C941B010C941B010C941B010C941B015F
:1001B0000C941B010C941B010C941B010C941B014F
:1001C0000C941B010C941B010C941B010C941B013F
:1001D0000C941B010C941B010C941B010C941B012F
:1001E0000C941B010C941B010C941B010C941B011F
:1001F0000C941B010C941B010C941B0111241FBEB9
:10020000CFEFCDBFDFE2DEBF10E2A0E0B0E2ECEF67
:10021000F9E002C005900D92A830B107D9F720E2AD
:10022000A8E0B0E201C01D92AA32B207E1F70E9435
:100230002F010C94FC040C940000E0E5F0E08081B8
:1002400082608083818181FFFDCF88ED84BFE0E4FF
:10025000F0E091E0908384BF84E1818308950E945F
:100260001D010E943B010E94B901FDCFE1E1F0E2D6
:10027000148615860895E0E4F6E080EB818380E142
:100280008583E0ECF8E0808184658083E0E8F6E037
:1002900080898861808B81898861818B46E351E008
:1002A00060EA74E081E190E20E94400240EC62EE7C
:1002B00081E190E20E944B02E0EAF0E082818760F7
:1002C00082837894089580E18093470682E08A953E
:1002D000F1F700C0E0ECF8E082811382828188238C
:1002E000ECF7E0ECF8E0638182811382828188235D
:1002F000ECF78091C30892E09A95F1F700C090E185
:100300009093470670E0660F771F660F771F829500
:10031000869586958370682B80E090E00E94D903D3
:1003200020E030E040E85AE30E94670420E030E03B
:1003300044EB53E40E9467040895681B790B653B06
:10034000710544F0CB018856914068E671E00E9447
:10035000D40408956C348FEF780744F4CB018859A6
:100360009E4F68E671E00E94D4040895862F972F6F
:1003700008950E9463010E94A30360930F2070936D
:1003800010208FE19EE40197F1F700C000000E9469
:1003900063010E94A30360930D2070930E2060916F
:1003A0000D2070910E2080910F20909110200E94BE
:1003B0009D0180930A2090930B20BC01990F880B1C
:1003C000990B0E94DB03209104203091052040917D
:1003D0000620509107200E94310320910020309187
:1003E000012040910220509103200E9467040E9446
:1003F000A303719561957109072E000C880B990B69
:100400000E94DB0326E636E646E650E40E9431030E
:100410000E94A303609308207093092020910C2070
:10042000E1E1F0E224872F5F20930C2024E325876D
:10043000CB0108951F920F920FB60F9211242F93A4
:100440003F934F935F936F937F938F939F93AF935C
:10045000BF93EF93FF9381E190E20E940203FF912B
:10046000EF91BF91AF919F918F917F916F915F912C
:100470004F913F912F910F900FBE0F901F901895A5
:10048000FC016083718342835383148A158A168A20
:10049000178A108E0895DC01ED91FC911197486345
:1004A0004087ED91FC91660F63870895FC01808D74
:1004B000882351F0A081B18182E019968C9386E067
:1004C000878B168A108E089581E0868B178AA0810B
:1004D000B18118968C9118978B7F18968C93148AFB
:1004E000158A0190F081E02D83E081870895FC0159
:1004F000A081B18118968C9118978B7F18968C9358
:10050000A081B1811A968C911A9780641A968C9367
:1005100081E0878B168A0895CF93DF93FC01A08139
:10052000B18118968C911897846018968C93848961
:10053000883008F5EF010190F081E02D84859C89D9
:10054000FE01E90FF11D8483EA81FB8109958C8905
:100550008F5F8C8B888D882349F0E881F98182E058
:10056000818786E08F8B1E8A188E0DC0E881F98105
:1005700083E0818708C0A081B18186E019968C93C1
:1005800082E0878B168ADF91CF910895FC018589DF
:10059000882371F0A081B1811A968C911A9784FFFB
:1005A00007C082E019968C9381E0878B168A0895A4
:1005B0008589883098F48589DF01A80FB11D1C96C4
:1005C0008C91A081B1811C968C9385898F5F858BDE
:1005D0000190F081E02D83E081870895A081B181B1
:1005E00082E019968C93878B168A0895DC01ED9131
:1005F000FC91228521FF03C00E94C60208950E943B
:100600008C020895FC01A081B1811A968C9182FF21
:1006100006C0148A158A84E0878B168A089583FFA2
:1006200006C0148A158A83E0878B168A0895282FBE
:100630002074982F9174913421F4CF010E945602B6
:100640000895222321F0CF010E9477020895882384
:1006500024F4CF010E94F602089585E0878B168A64
:1006600008950E9445030C942D040E94260458F01E
:100670000E941F0440F029F45F3F29F00C941604F7
:1006800051110C9461040C941C040E943E0468F304
:100690009923B1F3552391F3951B550BBB27AA273B
:1006A00062177307840738F09F5F5F4F220F331F75
:1006B000441FAA1FA9F335D00E2E3AF0E0E832D03D
:1006C00091505040E695001CCAF72BD0FE2F29D040
:1006D000660F771F881FBB1F261737074807AB0712
:1006E000B0E809F0BB0B802DBF01FF2793585F4F87
:1006F0003AF09E3F510578F00C9416040C94610476
:100700005F3FE4F3983ED4F3869577956795B79568
:10071000F7959F5FC9F7880F911D9695879597F973
:100720000895E1E0660F771F881FBB1F62177307EC
:100730008407BA0720F0621B730B840BBA0BEE1F01
:1007400088F7E09508950E94AA036894B1110C946B
:10075000610408950E94460488F09F5798F0B92FCD
:100760009927B751B0F0E1F0660F771F881F991FE6
:100770001AF0BA95C9F714C0B13091F00E94600424
:10078000B1E008950C946004672F782F8827B85F34
:1007900039F0B93FCCF3869577956795B395D9F73E
:1007A0003EF490958095709561957F4F8F4F9F4F48
:1007B0000895E89409C097FB3EF490958095709554
:1007C00061957F4F8F4F9F4F9923A9F0F92F96E99D
:1007D000BB279395F695879577956795B795F11112
:1007E000F8CFFAF4BB0F11F460FF1BC06F5F7F4FAF
:1007F0008F4F9F4F16C0882311F096E911C07723C1
:1008000021F09EE8872F762F05C0662371F096E8C9
:10081000862F70E060E02AF09A95660F771F881F98
:10082000DAF7880F9695879597F9089597F99F6756
:1008300080E870E060E008959FEF80EC0895002468
:100840000A941616170618060906089500240A9435
:1008500012161306140605060895092E0394000CBB
:1008600011F4882352F0BB0F40F4BF2B11F460FF4A
:1008700004C06F5F7F4F8F4F9F4F089557FD905873
:10088000440F551F59F05F3F71F04795880F97FB54
:10089000991F61F09F3F79F087950895121613060E
:1008A0001406551FF2CF4695F1DF08C0161617063D
:1008B0001806991FF1CF8695710561050894089572
:1008C000E894BB2766277727CB0197F908950E9404
:1008D0007A040C942D040E941F0438F00E94260410
:1008E00020F0952311F00C9416040C941C04112490
:1008F0000C9461040E943E0470F3959FC1F3950F20
:1009000050E0551F629FF001729FBB27F00DB11D93
:10091000639FAA27F00DB11DAA1F649F6627B00D23
:10092000A11D661F829F2227B00DA11D621F739F0C
:10093000B00DA11D621F839FA00D611D221F749F1A
:100940003327A00D611D231F849F600D211D822F61
:10095000762F6A2F11249F5750409AF0F1F0882388
:100960004AF0EE0FFF1FBB1F661F771F881F9150B5
:100970005040A9F79E3F510580F00C9416040C944A
:1009800061045F3FE4F3983ED4F3869577956795CD
:10099000B795F795E7959F5FC1F7FE2B880F911DDF
:1009A0009695879597F9089597FB072E16F400946E
:1009B00007D077FD09D00E94E80407FC05D03EF47B
:1009C000909581959F4F0895709561957F4F0895FB
:1009D000AA1BBB1B51E107C0AA1FBB1FA617B70765
:1009E00010F0A61BB70B881F991F5A95A9F7809581
:0C09F0009095BC01CD010895F894FFCF54
:0809FC005839B43C0AD7233C32
:00000001FF
