:100000000C94FE000C941F010C941F010C941F0112
:100010000C941F010C941F010C941F010C941F01E0
:100020000C941F010C941F010C941F010C941F01D0
:100030000C941F010C941F010C941F010C941F01C0
:100040000C941F010C941F010C941F010C941F01B0
:100050000C941F010C941F010C941F010C941F01A0
:100060000C941F010C941F010C941F010C941F0190
:100070000C941F010C941F010C941F010C941F0180
:100080000C941F010C941F010C941F010C941F0170
:100090000C941F010C941F010C941F010C941F0160
:1000A0000C941F010C941F010C941F010C941F0150
:1000B0000C941F010C941F010C941F010C941F0140
:1000C0000C941F010C941F010C941F010C941F0130
:1000D0000C941F010C941F010C941F010C941F0120
:1000E0000C941F010C941F010C941F010C941F0110
:1000F0000C941F010C941F010C941F010C941F0100
:100100000C941F010C941F010C941F010C941F01EF
:100110000C941F010C941F010C941F010C941F01DF
:100120000C941F010C941F010C941F010C941F01CF
:100130000C941F010C941F010C941F010C941F01BF
:100140000C941F010C941F010C941F010C941F01AF
:100150000C941F010C941F010C941F010C941F019F
:100160000C941F010C941F010C941F010C941F018F
:100170000C941F010C941F010C941F010C941F017F
:100180000C941F010C941F010C941F010C941F016F
:100190000C941F010C941F010C941F010C941F015F
:1001A0000C941F010C941F010C941F010C941F014F
:1001B0000C941F010C941F010C941F010C941F013F
:1001C0000C941F010C941F010C941F010C941F012F
:1001D0000C941F010C941F010C941F010C941F011F
:1001E0000C941F010C941F010C941F010C941F010F
:1001F0000C941F010C941F010C941F0111241FBEAD
:10020000CFEFCDBFDFE5DEBF00E00CBF10E2A0E026
:10021000B0E2EEE2F7E000E00BBF02C007900D9203
:10022000A831B107D9F720E2A8E1B0E201C01D92E0
:10023000AD31B207E1F70E9448030C9495030C948A
:100240000000A0E6B6E014969C911497937C149657
:100250009C93149714969C91149783FB662760F9DE
:1002600070E0660F771F62957295707F7627607FCA
:100270007627E82FE170F0E0EE0FFF1FEE0FFF1F73
:10028000E92B6E2B82FB442740F950E042955295B2
:10029000507F5427407F5427462B81FB222720F98B
:1002A00030E0220F331F220F331F220F331F242B66
:1002B00014962C930895CF93DF93C0E6D6E08C81FB
:1002C00082608C8389E190E00E9419038C818D7F8C
:1002D0008C83DF91CF910895CF93C82F662331F09F
:1002E000E0E6F6E084818160848305C0E0E6F6E024
:1002F00084818E7F84838C2F82958F700E94210150
:100300000E945B018C2F8F700E9421010E945B0173
:1003100082E390E00E941903CF910895CF93DF9379
:10032000EC018881882339F0219661E00E946C01FC
:1003300089918111FACFDF91CF91089560931820B0
:100340007093192080931A2090931B2008953F9258
:100350004F925F926F927F928F929F92AF92BF92D5
:10036000CF92DF92EF92FF920F931F93CF93DF9381
:10037000EC01609118207091192080911A209091C1
:100380001B2020E831E541E050E00E946403690150
:100390007A01603821E5720721E08207910580F03B
:1003A00060587145814091093FEFC31AD30AE30AAF
:1003B000F30A603821E5720721E08207910580F792
:1003C00020E13EE040E050E00E9464032C833D8346
:1003D0002CE330E040E050E00E9464032A833B833A
:1003E00068837983C701B6016C5F7F4F8F4F9F4F42
:1003F00027E030E040E050E00E94640377231CF0E7
:100400006C877D8704C0695F7F4F6C877D8742EB77
:1004100057E00F2EFDE69F2EF02DAA24A394B12CB9
:10042000712C0F2EF4E68F2EF02D0F2EFEE66F2E80
:10043000F02D55245394412C312C00E911E006C0D5
:100440004F5F5F4FC81AD90AEA0AFB0AFA01E37044
:10045000FF27309771F59A013695279536952795A0
:10046000ABE7B4E10E94860396958795889E90013C
:10047000899E300D11244217530701F59A013295D8
:1004800022952F7023273F702327AEE3BAE00E9406
:100490008603BC01609FC001619F900D709F900D0D
:1004A00011244817590779F4862D952DA42DB32DC5
:1004B0000EC0892D9A2DAB2DB72D09C0862D952DF7
:1004C000A42DB32D04C0892D9A2DAB2DB72DC816A0
:1004D000D906EA06FB0608F0B3CF4A875B87EF2B05
:1004E00091F59A013695279536952795ABE7B4E1B6
:1004F0000E9486039695879564E6689F9001699FA0
:10050000300D11244217530709F59A0132952295AF
:100510002F7023273F702327AEE3BAE00E948603A3
:1005200020E931E0BC01629FC001639F900D729F82
:10053000900D112431E020E04817590709F030E010
:10054000832F922F05C080E090E002C081E090E010
:10055000FC01EE0FFF1FE80FF91FEE0FFF1FEE0F5C
:10056000FF1FE050F04E8081082E000C990BAA0B63
:10057000BB0BC816D906EA06FB06A8F0319620E0A8
:1005800030E0C81AD90AEA0AFB0A2F5F3F4F81916F
:10059000082E000C990BAA0BBB0BC816D906EA064D
:1005A000FB0678F702C020E030E02F5F3F4F28873E
:1005B00039877FEFC71AD70ACE82DF82DF91CF91CA
:1005C0001F910F91FF90EF90DF90CF90BF90AF9071
:1005D0009F908F907F906F905F904F903F90089585
:1005E00020911C20211113C00097A9F4089520E048
:1005F00030E0E3EFF1E03197F1F700C000002F5F4A
:100600003F4F82179307A9F7415011F4EDCF40E116
:10061000009769F7F9CF20E030E0E3EFF1E03197A0
:10062000F1F700C000002F5F3F4F82179307A9F733
:10063000089520911C2021110EC0009781F4089587
:1006400020E030E000C02F5F3F4F82179307D1F7C3
:10065000415011F4F2CF40E1009791F7F9CF20E03B
:1006600030E000C02F5F3F4F82179307D1F7089506
:100670008FEF80937000809371008093720080935D
:1006800073008093740080937500809376000895C2
:10069000CF93DF93CDB7DEB72E97CDBFDEBF0E94DD
:1006A000380360E075E68DEC9DE10E949E01CE016D
:1006B00001960E94A701CE0101960E948E0181E061
:1006C00090E00E94F002FBCFA1E21A2EAA1BBB1BF6
:1006D000FD010DC0AA1FBB1FEE1FFF1FA217B3070E
:1006E000E407F50720F0A21BB30BE40BF50B661F24
:1006F000771F881F991F1A9469F7609570958095E8
:1007000090959B01AC01BD01CF010895A29FB0015E
:10071000B39FC001A39F700D811D1124911DB29F35
:0E072000700D811D1124911D0895F894FFCFD6
:10072E001F1C1F1E1F1E1F1F1E1F1E1F1F1D1F1ED5
:08073E001F1E1F1F1E1F1E1FBE
:00000001FF
