S01300004261736973737461696F6E2E7372656391
S11300000C94FE000C941F010C941F010C941F010E
S11300100C941F010C941F010C941F010C941F01DC
S11300200C941F010C941F010C941F010C941F01CC
S11300300C941F010C941F010C941F010C941F01BC
S11300400C941F010C941F010C941F010C941F01AC
S11300500C941F010C941F010C941F010C941F019C
S11300600C941F010C941F010C941F010C941F018C
S11300700C941F010C941F010C941F010C941F017C
S11300800C941F010C941F010C941F010C941F016C
S11300900C941F010C941F010C941F010C941F015C
S11300A00C941F010C941F010C941F010C941F014C
S11300B00C941F010C941F010C941F010C941F013C
S11300C00C941F010C941F010C941F010C941F012C
S11300D00C941F010C941F010C941F010C941F011C
S11300E00C941F010C941F010C941F010C941F010C
S11300F00C941F010C941F010C941F010C941F01FC
S11301000C941F010C941F010C941F010C941F01EB
S11301100C941F010C941F010C941F010C941F01DB
S11301200C941F010C941F010C941F010C941F01CB
S11301300C941F010C941F010C941F010C941F01BB
S11301400C941F010C941F010C941F010C941F01AB
S11301500C941F010C941F010C941F010C941F019B
S11301600C941F010C941F010C941F010C941F018B
S11301700C941F010C941F010C941F010C941F017B
S11301800C941F010C941F010C941F010C941F016B
S11301900C941F010C941F010C941F010C941F015B
S11301A00C941F010C941F010C941F010C941F014B
S11301B00C941F010C941F010C941F010C941F013B
S11301C00C941F010C941F010C941F010C941F012B
S11301D00C941F010C941F010C941F010C941F011B
S11301E00C941F010C941F010C941F010C941F010B
S11301F00C941F010C941F010C941F0111241FBEA9
S1130200CFEFCDBFDFE5DEBF00E00CBF10E2A0E022
S1130210B0E2E4E3F1E100E00BBF02C007900D920D
S1130220A831B107D9F720E2A8E1B0E201C01D92DC
S1130230AC31B207E1F70E9450060C9498080C9474
S11302400000CF93DF931F92CDB7DEB7898380E69A
S113025096E020E636E0F9012481237CFC01248326
S113026080E696E020E636E0F9012481522F2981C8
S1130270269526952695222F30E021703327220FCC
S1130280331F22953295307F3227207F3227422F29
S1130290298126952695222F30E021703327229537
S11302A03295307F3227207F3227422B29812695B1
S11302B0222F30E021703327220F331F220F331FE8
S11302C0220F331F422B2981222F30E02170332744
S11302D0220F331F220F331F242B252BFC012483D1
S11302E000000F90DF91CF910895CF93DF93CDB7A6
S11302F0DEB7A397CDBFDEBF8AA36BA38BA18823F0
S113030051F080E696E020E636E0F9012481216090
S1130310FC01248309C080E696E020E636E0F9017A
S113032024812E7FFC0124838AA189838AA182955A
S11303308F708AA38AA18F708AA38AA10E94210147
S11303400E94A00289818F708AA38AA10E94210140
S11303500E94A00280E090E0A8E4B2E48A839B8338
S1130360AC83BD832BEA3AEA4AEA5EE36A817B8185
S11303708C819D810E94FA07DC01CB018E839F83CF
S1130380A887B98720E030E040E85EE36A817B819A
S11303908C819D810E94FA07DC01CB018A879B87AF
S11303A0AC87BD8720E030E040E85FE36E817F8169
S11303B0888599850E94DA0688231CF481E08E875B
S11303C0B2C020E03FEF4FE757E46A857B858C8518
S11303D09D850E94F50718160CF07BC020E030E0E4
S11303E04AE754E46A817B818C819D810E94DF0607
S11303F0DC01CB018F87988BA98BBA8B20E030E08E
S11304004AE753E46F85788989899A890E94FA07B3
S1130410DC01CB018B8B9C8BAD8BBE8B20E030E061
S113042040E85FE36B897C898D899E890E94DA06A6
S113043088232CF481E090E08F8B988F3FC020E0DC
S11304403FEF4FE757E46B897C898D899E890E9431
S1130450F50718164CF520E030E040E251E46F85D2
S1130460788989899A890E94FA07DC01CB01BC0149
S1130470CD010E945107DC01CB018F8B988F0FC0F7
S113048089E190E0898F9A8F898D9A8D0197F1F790
S1130490898F9A8F8F89988D01978F8B988F8F89E9
S11304A0988D892B69F73FC06B897C898D899E89DA
S11304B00E945107DC01CB018F8B988F8F89988D17
S11304C08B8F9C8F8B8D9C8D0197F1F78B8F9C8FDD
S11304D02AC020E030E04FE753E46E817F818885B5
S11304E099850E94F5071816ACF46A857B858C857E
S11304F09D850E945107DC01CB018D8F9E8F8D8DD0
S11305009E8D8F8F98A38F8D98A10197F1F78F8F70
S113051098A30FC06E817F81888599850E945107B9
S1130520DC01CB018E878E8589A389A18A95F1F799
S113053089A30000A396CDBFDEBFDF91CF910895BC
S1130540CF93DF93CDB7DEB7A097CDBFDEBF80E6F4
S113055096E020E636E0F90124812260FC01248340
S113056080E090E0A8ECB1E489839A83AB83BC83F8
S11305702BEA3AEA4AEA5EE369817A818B819C81BB
S11305800E94FA07DC01CB018D839E83AF83B88779
S113059020E030E040E85EE369817A818B819C81D0
S11305A00E94FA07DC01CB0189879A87AB87BC8755
S11305B020E030E040E85FE36D817E818F819885A3
S11305C00E94DA0688231CF481E08D87B2C020E003
S11305D03FEF4FE757E469857A858B859C850E94B8
S11305E0F50718160CF07BC020E030E04AE754E42D
S11305F069817A818B819C810E94DF06DC01CB01B9
S11306008E879F87A88BB98B20E030E04AE753E4BC
S11306106E857F85888999890E94FA07DC01CB0160
S11306208A8B9B8BAC8BBD8B20E030E040E85FE392
S11306306A897B898C899D890E94DA0688232CF437
S113064081E090E08E8B9F8B3FC020E03FEF4FE72F
S113065057E46A897B898C899D890E94F50718165D
S11306604CF520E030E040E251E46E857F858889D6
S113067099890E94FA07DC01CB01BC01CD010E94DB
S11306805107DC01CB018E8B9F8B0FC089E190E079
S1130690888F998F888D998D0197F1F7888F998F1D
S11306A08E899F8901978E8B9F8B8E899F89892B39
S11306B069F73FC06A897B898C899D890E945107AB
S11306C0DC01CB018E8B9F8B8E899F898A8F9B8FB8
S11306D08A8D9B8D0197F1F78A8F9B8F2AC020E02A
S11306E030E04FE753E46D817E818F8198850E94CD
S11306F0F5071816ACF469857A858B859C850E946C
S11307005107DC01CB018C8F9D8F8C8D9D8D8E8F3D
S11307109F8F8E8D9F8D0197F1F78E8F9F8F0FC0C6
S11307206D817E818F8198850E945107DC01CB0108
S11307308D878D8588A388A18A95F1F788A380E6A3
S113074096E020E636E0F90124812D7FFC01248324
S11307500000A096CDBFDEBFDF91CF910895CF9367
S1130760DF931F921F92CDB7DEB789839A830CC0A3
S113077089819A81FC01808161E00E9475018981EF
S11307809A81019689839A8389819A81FC01808167
S1130790882371F700000F900F90DF91CF91089597
S11307A0CF93DF9300D01F92CDB7DEB769837A83EE
S11307B08B839C8389819A81AB81BC81809318202F
S11307C090931920A0931A20B0931B200000249624
S11307D0CDBFDEBFDF91CF910895EF92FF920F93CB
S11307E01F93CF93DF93CDB7DEB72E97CDBFDEBF78
S11307F08D879E878091182090911920A0911A20AE
S1130800B0911B2020E831E541E050E0BC01CD016E
S11308100E946708DA01C90189839A83AB83BC8388
S11308208091182090911920A0911A20B0911B203A
S113083020E831E541E050E0BC01CD010E946708A9
S1130840DC01CB018D839E83AF83B887000017C082
S11308508D819E81AF81B88580589145A140B109B1
S11308608D839E83AF83B88789819A81AB81BC8154
S11308700196A11DB11D89839A83AB83BC838D81AD
S11308809E81AF81B88580389145A140B10500F7BC
S11308908D819E81AF81B88520E13EE040E050E04B
S11308A0BC01CD010E946708DA01C9019C018D8554
S11308B09E85FC01248335838D819E81AF81B8851B
S11308C020E13EE040E050E0BC01CD010E94670819
S11308D0DC01CB018D839E83AF83B8878D819E819C
S11308E0AF81B8852CE330E040E050E0BC01CD019D
S11308F00E946708DA01C9019C018D859E85FC016F
S1130900228333838D819E81AF81B8852CE330E0CF
S113091040E050E0BC01CD010E946708DC01CB013E
S11309209C018D859E85FC012083318389819A8178
S1130930AB81BC810496A11DB11D27E030E040E0ED
S113094050E0BC01CD010E946708DC01CB019C0191
S11309508D859E85FC01248735878D859E85FC01C8
S11309608485958599236CF48D859E85FC01848509
S113097095859C01295F3F4F8D859E85FC012487C9
S1130980358782EB97E089879A8719C089859A858C
S1130990019689879A8729813A814B815C818D816F
S11309A09E81AF81B88579018A01E81AF90A0A0B98
S11309B01B0BD801C70189839A83AB83BC838985C8
S11309C09A8583709927892BE1F549855A85CA014F
S11309D096958795969587959C01ABE7B4E10E941F
S11309E089089695879564E6689F9001699F300D04
S11309F01124CA01821B930B892BF1F449855A8572
S1130A00CA01929582958F7089279F7089279C01CE
S1130A10AEE3BAE00E948908BC0120E931E0629F9C
S1130A20C001639F900D729F900D11248A01081BD1
S1130A30190BC801892B29F48EE691E0A0E0B0E0FF
S1130A4004C08DE691E0A0E0B0E08D839E83AF8387
S1130A50B8872D813E814F81588589819A81AB81E8
S1130A60BC8182179307A407B50708F08FCF000055
S1130A7029853A858D859E85FC0122873387898562
S1130A809A8583709927892BD1F549855A85CA019E
S1130A9096958795969587959C01ABE7B4E10E945E
S1130AA089089695879564E6689F9001699F300D43
S1130AB01124CA01821B930B892BF1F449855A85B1
S1130AC0CA01929582958F7089279F7089279C010E
S1130AD0AEE3BAE00E948908BC0120E931E0629FDC
S1130AE0C001639F900D729F900D11247A01E81A42
S1130AF0F90AC701892B19F421E030E002C020E093
S1130B0030E0C901880F991F820F931F880F991F26
S1130B10880F991F8050904E8B879C8719861A8660
S1130B2022C02B853C8589859A85820F931FFC0101
S1130B308081082E000C990BAA0BBB0B29813A81EA
S1130B404B815C8179018A01E81AF90A0A0B1B0BB3
S1130B50D801C70189839A83AB83BC8389859A852D
S1130B60019689879A872B853C8589859A85820F8A
S1130B70931FFC018081282F880F330B440B550BE6
S1130B8089819A81AB81BC8182179307A407B50739
S1130B9040F689859A8501969C018D859E85FC0188
S1130BA02087318789819A8101969C018D859E8554
S1130BB0FC012683378300002E96CDBFDEBFDF9174
S1130BC0CF911F910F91FF90EF900895CF93DF93F2
S1130BD01F92CDB7DEB78FE390E0FC01808189835B
S1130BE0F89489810F90DF91CF910895CF93DF938B
S1130BF01F92CDB7DEB789838FE390E02981FC0192
S1130C00208300000F90DF91CF910895CF93DF935D
S1130C101F921F92CDB7DEB78A830E94E6058983AF
S1130C2080E590E020E530E0F9012081322F2A812F
S1130C3020952323FC01208389810E94F60500006E
S1130C400F900F90DF91CF910895CF93DF9300D051
S1130C501F92CDB7DEB780E790E089839A831C8228
S1130C601B820DC089819A819C012F5F3F4F29838C
S1130C703A832FEFFC0120838B818F5F8B838B81E1
S1130C80873080F381E08C838C81882319F481E0A0
S1130C900E9406062496CDBFDEBFDF91CF91089552
S1130CA0CF93DF93CDB7DEB76C97CDBFDEBF0E9485
S1130CB0250660E075E68DEC9DE10E94D003CE012F
S1130CC00F960E94ED03CE010F960E94AF0380E0C1
S1130CD090E0A0E8BFE389839A83AB83BC8320E0E0
S1130CE030E04AE753E469817A818B819C810E94D8
S1130CF0FA07DC01CB018D839E83AF83B88720E0A4
S1130D0030E040E85FE36D817E818F8198850E94A9
S1130D10DA0688232CF481E090E089879A873FC023
S1130D2020E03FEF4FE757E46D817E818F81988506
S1130D300E94F50718164CF520E030E040E251E43B
S1130D4069817A818B819C810E94FA07DC01CB0145
S1130D50BC01CD010E945107DC01CB0189879A8730
S1130D600FC089E190E08B879C878B859C850197D8
S1130D70F1F78B879C8789859A85019789879A875C
S1130D8089859A85892B69F714C06D817E818F814D
S1130D9098850E945107DC01CB0189879A87898550
S1130DA09A858D879E878D859E850197F1F78D871E
S1130DB09E878DCF0E94800708F481E008950E94E9
S1130DC0F3060C94BB070E94B40758F00E94AD07C9
S1130DD040F029F45F3F29F00C94A40751110C94BE
S1130DE0EF070C94AA070E94CC0768F39923B1F388
S1130DF0552391F3951B550BBB27AA27621773073D
S1130E00840738F09F5F5F4F220F331F441FAA1FD0
S1130E10A9F335D00E2E3AF0E0E832D0915050408C
S1130E20E695001CCAF72BD0FE2F29D0660F771F3A
S1130E30881FBB1F261737074807AB07B0E809F020
S1130E40BB0B802DBF01FF2793585F4F3AF09E3FA5
S1130E50510578F00C94A4070C94EF075F3FE4F37A
S1130E60983ED4F3869577956795B795F7959F5FE8
S1130E70C9F7880F911D9695879597F90895E1E034
S1130E80660F771F881FBB1F621773078407BA0793
S1130E9020F0621B730B840BBA0BEE1F88F7E095EE
S1130EA008950E94D40788F09F5798F0B92F992786
S1130EB0B751B0F0E1F0660F771F881F991F1AF041
S1130EC0BA95C9F714C0B13091F00E94EE07B1E0B1
S1130ED008950C94EE07672F782F8827B85F39F0B0
S1130EE0B93FCCF3869577956795B395D9F73EF4DA
S1130EF090958095709561957F4F8F4F9F4F089582
S1130F00990F0008550FAA0BE0E8FEEF1616170616
S1130F10E807F907C0F012161306E407F50798F07E
S1130F20621B730B840B950B39F40A2661F0232B97
S1130F30242B252B21F408950A2609F4A140A69513
S1130F408FEF811D811D089597F99F6780E870E0F8
S1130F5060E008959FEF80EC089500240A9416162B
S1130F60170618060906089500240A941216130693
S1130F70140605060895092E0394000C11F4882321
S1130F8052F0BB0F40F4BF2B11F460FF04C06F5F3D
S1130F907F4F8F4F9F4F089557FD9058440F551F13
S1130FA059F05F3F71F04795880F97FB991F61F0E7
S1130FB09F3F79F087950895121613061406551F5E
S1130FC0F2CF4695F1DF08C0161617061806991FCA
S1130FD0F1CF86957105610508940895E894BB27BF
S1130FE066277727CB0197F908950E94800708F4B4
S1130FF08FEF08950E940D080C94BB070E94AD0763
S113100038F00E94B40720F0952311F00C94A40743
S11310100C94AA0711240C94EF070E94CC0770F3D8
S1131020959FC1F3950F50E0551F629FF001729F89
S1131030BB27F00DB11D639FAA27F00DB11DAA1F98
S1131040649F6627B00DA11D661F829F2227B00DE5
S1131050A11D621F739FB00DA11D621F839FA00D70
S1131060611D221F749F3327A00D611D231F849FC0
S1131070600D211D822F762F6A2F11249F57504017
S11310809AF0F1F088234AF0EE0FFF1FBB1F661F92
S1131090771F881F91505040A9F79E3F510580F05B
S11310A00C94A4070C94EF075F3FE4F3983ED4F349
S11310B0869577956795B795F795E7959F5FC1F7FF
S11310C0FE2B880F911D9695879597F90895A1E2B7
S11310D01A2EAA1BBB1BFD010DC0AA1FBB1FEE1FAE
S11310E0FF1FA217B307E407F50720F0A21BB30BF9
S11310F0E40BF50B661F771F881F991F1A9469F775
S113110060957095809590959B01AC01BD01CF01D0
S11311100895A29FB001B39FC001A39F700D811DCC
S11311201124911DB29F700D811D1124911D0895EC
S1071130F894FFCF5D
S11311341F1C1F1E1F1E1F1F1E1F1E1F1F1D1F1EC1
S10B11441F1E1F1F1E1F1E1FAA
S9030000FC
