:100000000C94FE000C941F010C941F010C941F0112
:100010000C941F010C941F010C941F010C941F01E0
:100020000C941F010C941F010C941F010C941F01D0
:100030000C941F010C941F010C941F010C941F01C0
:100040000C941F010C941F010C941F010C941F01B0
:100050000C941F010C941F010C941F010C941F01A0
:100060000C941F010C941F010C941F010C941F0190
:100070000C941F010C941F010C941F010C941F0180
:100080000C941F010C941F010C941F010C941F0170
:100090000C941F010C941F010C941F010C941F0160
:1000A0000C941F010C941F010C941F010C941F0150
:1000B0000C941F010C941F010C941F010C941F0140
:1000C0000C941F010C941F010C941F010C941F0130
:1000D0000C941F010C941F010C941F010C941F0120
:1000E0000C941F010C941F010C941F010C941F0110
:1000F0000C941F010C941F010C941F010C941F0100
:100100000C941F010C941F010C941F010C941F01EF
:100110000C941F010C941F010C941F010C941F01DF
:100120000C941F010C941F010C941F010C941F01CF
:100130000C941F010C941F010C941F010C941F01BF
:100140000C941F010C941F010C941F010C941F01AF
:100150000C941F010C941F010C941F010C941F019F
:100160000C941F010C941F010C941F010C941F018F
:100170000C941F010C941F010C941F010C941F017F
:100180000C941F010C941F010C941F010C941F016F
:100190000C941F010C941F010C941F010C941F015F
:1001A0000C941F010C941F010C941F010C941F014F
:1001B0000C941F010C941F010C941F010C941F013F
:1001C0000C941F010C941F010C941F010C941F012F
:1001D0000C941F010C941F010C941F010C941F011F
:1001E0000C941F010C941F010C941F010C941F010F
:1001F0000C941F010C941F010C941F0111241FBEAD
:10020000CFEFCDBFDFE5DEBF00E00CBF10E2A0E026
:10021000B0E2EAE1FBE000E00BBF02C007900D9204
:10022000A030B107D9F720E2A0E0B0E201C01D92F2
:10023000A836B207E1F70E942A040C948B050C94AF
:10024000000020910020211113C00097A9F4089507
:1002500020E030E0E3EFF1E03197F1F700C000007B
:100260002F5F3F4F82179307A9F7415011F4EDCF4D
:1002700040E1009769F7F9CF20E030E0E3EFF1E0EB
:100280003197F1F700C000002F5F3F4F82179307AF
:10029000A9F708958093C309E0ECF9E082818823EF
:1002A000ECF7089562E083E00E941404E0E4F8E0D3
:1002B00087E08083118282E090E086A397A310A25A
:1002C00011A28683089568E084E00E941404E0E6A9
:1002D000F6E090E2918320E8218384898861848B11
:1002E00080E58093C00938E03183A0E8B6E081E082
:1002F00011968C931197358315968C93258395834E
:1003000008950F931F93CF93DF93062FC0E6D6E097
:1003100018E01E83880F0E944A01802F0E944A0124
:100320001D838091C309DF91CF911F910F91089593
:10033000682F8DE10E948101089598E090936606F0
:10034000880F80640E944A0181E08093C309E0EC39
:10035000F9E082818823ECF78091C30998E09093BB
:1003600065060895CF93C82F80E00E949D018F718C
:100370009C2F907E682F692B80E00E948101C093A2
:100380004C20CF91089569E082E00E94810169E0EC
:1003900083E00E94810162E780E10E9481018AE19D
:1003A0000E949D018F70682F60628AE10E94810126
:1003B0000895CF93C82F80E00E949D01877EC87169
:1003C000682F6C2B80E00E948101CF910895CF931C
:1003D000C82F81E00E949D018F73C07C682F6C2B19
:1003E00081E00E948101CF910895CF93C82F85E0CD
:1003F0000E949D018F73C07C682F6C2B85E00E944A
:100400008101CF910895CF93C82F81E00E949D0173
:10041000C13051F018F0C23021F007C08F7D8460E8
:1004200004C08B7F806201C08B7D682F81E00E94B9
:100430008101CF910895FF920F931F93CF93DF9384
:10044000F82E162FD42FC22F8EE10E949D01FF207F
:1004500011F0806801C08F77112311F0886001C00E
:10046000877FDD2311F0806101C08F7E6C2F607665
:100470008979682B0670602B8EE10E948101DF91E3
:10048000CF911F910F91FF900895CF93C82F8BE1CB
:100490000E949D01CC2319F0682F606802C0682F6C
:1004A0006F778BE10E948101CF910895FF920F93A6
:1004B0001F93CF93DF93F82ED92FC62F82E10E948E
:1004C0009D016C2F70E061507109660F771F660FF8
:1004D000771F660F771F68716062877E682B82E1E5
:1004E0000E9481010F2D1D2FC6E1F80161918F013E
:1004F0008C2F0E948101CF5FCA31B9F7DF91CF9174
:100500001F910F91FF900895CF93C82F8CE10E9407
:100510009D018078682F6C2B8CE10E948101CF9126
:1005200008951F93CF93DF93182FD62FC42F8DE0FC
:100530000E949D01912F907C8F70682F692B9D2FB9
:100540009073692B677FC8706C2BECE4F0E2138327
:10055000D4838DE00E9481018EE00E949D01682F6E
:1005600068618EE00E9481018EE00E949D01DF9112
:10057000CF911F9108951F93CF93DF938EE00E9438
:100580009D01682F62608EE00E94810180E40E94DC
:10059000B201C4EFD1E08EE00E949D01182F1270CD
:1005A00081FD06C081E090E00E942101219799F72A
:1005B00080E20E94B20181E0111101C080E0DF9170
:1005C000CF911F910895CF92DF92EF92FF92CF9338
:1005D000DF936B017C0120E030E841E654E40E94A7
:1005E000B504882354F020E030EC44E654E4C7011D
:1005F000B6010E943404882364F120E030EC44E624
:1006000054E4C701B6010E94B504882354F020E0E9
:1006100030E048E654E4C701B6010E9434041816DD
:10062000D4F420E030EC47E554E4C701B6010E9461
:10063000B50488230CF453C020E030E849E554E4C5
:10064000C701B6010E94340418160CF44AC0D0E168
:1006500003C0D0E001C0D8E020E030E04AE754E435
:10066000C701B6010E94BA040E9439049B01AC0183
:10067000A0ECB3E00E94800520E032EC41E050E0C5
:100680000E944F0569017A01CA01B9016B547109D1
:10069000810991092CE430E040E050E00E944F05D0
:1006A000C1E0C20F9BE49C9F900D1124C91A80E009
:1006B0000E949D01877E6D2F682B80E00E94810142
:1006C00067E786E00E9481016C2F87E00E9481012C
:1006D0006C2D88E00E9481010E94BB0203C080E073
:1006E00001C080E0DF91CF91FF90EF90DF90CF903D
:1006F0000895CF92DF92EF92FF920F931F93CF93C3
:10070000DF9300D01F92CDB7DEB7082F0F2EF0E891
:10071000EF2EF6E0FF2EF02D14E0F7011183158384
:1007200085E090E00E942101F701168388EC90E0BB
:100730000E9421010E9452010E94630180E80E94F0
:10074000E70180E10E94D90180E20E94B20180ECC1
:100750000E94F501802F0E9498010F2EFCE4CF2EFD
:10076000F0E2DF2EF02DF601018380E00E944502C9
:1007700080E00E94030204E020E441E061E081E0C7
:100780000E941B0280E20E94840283E5898389E53E
:100790008A838EE48B8383E48C8364E0CE010196AC
:1007A0000E94560248E060E080E80E9491021093A7
:1007B000620692E0F7019283809101208E7F826031
:1007C00080930120F60115829683F701928781E0DC
:1007D000818B81858360818760E88FE00E94810141
:1007E0006AE979E189E594E40E94E3020E94C30189
:1007F0002496CDBFDEBFDF91CF911F910F91FF9067
:10080000EF90DF90CF9008958FEF809370008093EA
:1008100071008093720080937300809374008093C2
:100820007500809376000895CF93DF931F92CDB724
:10083000DEB79FB79983F8949981E82FF0E0E059EB
:10084000FF4F60958081682360839FBF0F90DF9189
:10085000CF9108950E94040481E00E94790381E011
:1008600090E00E942101FBCF0E94680408F481E01F
:1008700008950E94940488F09F5798F0B92F992703
:10088000B751B0F0E1F0660F771F881F991F1AF07B
:10089000BA95C9F714C0B13091F00E94AE04B1E02E
:1008A00008950C94AE04672F782F8827B85F39F02D
:1008B000B93FCCF3869577956795B395D9F73EF414
:1008C00090958095709561957F4F8F4F9F4F0895BC
:1008D000990F0008550FAA0BE0E8FEEF1616170651
:1008E000E807F907C0F012161306E407F50798F0B9
:1008F000621B730B840B950B39F40A2661F0232BD2
:10090000242B252B21F408950A2609F4A140A6954D
:100910008FEF811D811D089557FD9058440F551F7D
:1009200059F05F3F71F04795880F97FB991F61F071
:100930009F3F79F087950895121613061406551FE8
:10094000F2CF4695F1DF08C0161617061806991F54
:10095000F1CF86957105610508940895E894BB2749
:1009600066277727CB0197F908950E94680408F459
:100970008FEF08950E94CD040C943E050E9430052F
:1009800038F00E94370520F0952311F00C942705CC
:100990000C942D0511240C94AF040E948C0470F368
:1009A000959FC1F3950F50E0551F629FF001729F14
:1009B000BB27F00DB11D639FAA27F00DB11DAA1F23
:1009C000649F6627B00DA11D661F829F2227B00D70
:1009D000A11D621F739FB00DA11D621F839FA00DFB
:1009E000611D221F749F3327A00D611D231F849F4B
:1009F000600D211D822F762F6A2F11249F575040A2
:100A00009AF0F1F088234AF0EE0FFF1FBB1F661F1C
:100A1000771F881F91505040A9F79E3F510580F0E5
:100A20000C9427050C94AF045F3FE4F3983ED4F395
:100A3000869577956795B795F795E7959F5FC1F789
:100A4000FE2B880F911D9695879597F9089597F934
:100A50009F6780E870E060E008959FEF80EC089564
:100A600000240A941616170618060906089500248D
:100A70000A9412161306140605060895092E039407
:100A8000000C11F4882352F0BB0F40F4BF2B11F47B
:100A900060FF04C06F5F7F4F8F4F9F4F0895A1E2AB
:100AA0001A2EAA1BBB1BFD010DC0AA1FBB1FEE1FE8
:100AB000FF1FA217B307E407F50720F0A21BB30B33
:100AC000E40BF50B661F771F881F991F1A9469F7AF
:100AD00060957095809590959B01AC01BD01CF010B
:100AE0000895A29FB001B39FC001A39F700D811D07
:100AF0001124911DB29F700D811D1124911D089527
:100B00000E947105A59F900DB49F900DA49F800D2C
:0A0B1000911D11240895F894FFCF01
:00000001FF
