:100000000C9462010C9488010C9488010C94880172
:100010000C9488010C9488010C9488010C9488013C
:100020000C9488010C9488010C9488010C9488012C
:100030000C9488010C9488010C9488010C9488011C
:100040000C9488010C9488010C9488010C9488010C
:100050000C9488010C9488010C9488010C948801FC
:100060000C9488010C9488010C9488010C948801EC
:100070000C9488010C9488010C9488010C948801DC
:100080000C9488010C9488010C9488010C948801CC
:100090000C9488010C9488010C9488010C948801BC
:1000A0000C9488010C9488010C9488010C948801AC
:1000B0000C9488010C9488010C9488010C9488019C
:1000C0000C9488010C9488010C9488010C9488018C
:1000D0000C9488010C9488010C9488010C9488017C
:1000E0000C9488010C9488010C9488010C9488016C
:1000F0000C9488010C9488010C9488010C9488015C
:100100000C9488010C9488010C9488010C9488014B
:100110000C9488010C9488010C9488010C9488013B
:100120000C9488010C9488010C9488010C9488012B
:100130000C9488010C9488010C9488010C9488011B
:100140000C9488010C9488010C9488010C9488010B
:100150000C9488010C9488010C9488010C948801FB
:100160000C9488010C9488010C9488010C948801EB
:100170000C9488010C9488010C9488010C948801DB
:100180000C9488010C9488010C9488010C948801CB
:100190000C9488010C9488010C9488010C948801BB
:1001A0000C9488010C9488010C9488010C948801AB
:1001B0000C9488010C9488010C9488010C9488019B
:1001C0000C9488010C9488010C9488010C9488018B
:1001D0000C9488010C9488010C9488010C941802EA
:1001E0000C9488010C9488010C9488010C9488016B
:1001F0000C948801C302C802CD02D202D702DC02ED
:10020000E102E602EB02F002F502FA02FF02040349
:1002100009030E0313033F038503CB0313045B049D
:10022000A304EB0433057B05C30531067906C1063B
:10023000090751079907DF070C943F030C94D2027A
:100240000C9409070C94C3020C94EB020C94CD029D
:100250000C94F0020C9499070C94E1020C94510751
:100260000C9413030C94DC020C94CB030C94C30584
:100270000C94F5020C945B040C94C1060C940403DA
:100280000C94FF020C9413040C94D7020C94FA0201
:100290000C94A3040C940E030C94EB040C947906B8
:1002A0000C94E6020C9409030C9455080C94330545
:1002B0000C9431060C947B050C94DF070C94850399
:1002C0000C94C80211241FBECFEFCDBFDFE3DEBF09
:1002D00000E00CBF18BE19BE1ABE1BBE11E2A0E0A2
:1002E000B0E2EAE9F7E100E00BBF02C007900D922F
:1002F000AA33B107D9F71BBE21E2AAE3B1E201C0DC
:100300001D92AB35B207E1F70E94AD080C94CB0B00
:100310000C940000CF93DF93CDB7DEB780EA9BE06B
:10032000FC01178280EA9BE02CE0FC01268380EA36
:100330009BE020E3FC01238380EA9BE028E1FC01B1
:10034000248380EA9BE023E0FC01258380EA96E099
:1003500028E0FC0120830000DF91CF910895CF9326
:10036000DF9300D01F92CDB7DEB78B839C831A82B8
:1003700019828B819C810E94FA088A831BC000002D
:1003800080EA9BE0FC018181882F90E080729927B0
:10039000892BB1F380EA9BE02981222F30E04B8149
:1003A0005C81240F351FF9012081FC0120838981A4
:1003B0008F5F898399818A81981708F319820000D9
:1003C00080EA9BE0FC018181882F90E08072992770
:1003D000892BB1F380EA9BE02AE0FC012083000036
:1003E00080EA9BE0FC018181882F90E08072992750
:1003F000892BB1F380EA9BE02DE0FC012083000013
:100400002496CDBFDEBFDF91CF910895CF93DF93C8
:10041000CDB7DEB780EA90E020EA30E0F901228132
:100420002760FC01228378940000DF91CF9108952A
:100430001F920F9200903F000F92112400903800FD
:100440000F9210923800009039000F9210923900EC
:1004500000903A000F9210923A0000903B000F92E9
:1004600010923B002F933F934F935F936F937F9333
:100470008F939F93AF93BF93EF93FF93CF93DF93AC
:10048000CDB7DEB780EA9BE0FC01808180935321E9
:10049000809152218823C9F5809153218A30C1F07F
:1004A000809153218D30A1F080913B21843180F4E3
:1004B00080913B21882F90E020915321845C9E4DB8
:1004C000FC01208380913B218F5F80933B211DC0E5
:1004D00080913B21882F90E0845C9E4DFC0110822E
:1004E00010923B2181E08093522190913A2181E04A
:1004F0008927882341F0809151218F5F809351217A
:100500000E941C0302C00E9442080000DF91CF91AC
:10051000FF91EF91BF91AF919F918F917F916F91DB
:100520005F914F913F912F910F9000923B000F9060
:1005300000923A000F90009239000F90009238001C
:100540000F9000923F000F901F901895CF93DF936C
:10055000CDB7DEB78091002090910120092E000CCC
:10056000AA0BBB0B4EEF5FEF20E130E0841B950B35
:100570002817390708F45CC0FC018827E650FF4FB4
:100580008F4F0C94E80880E190E20E94AF0150C0C8
:1005900083E190E20E94AF014BC08FE190E20E94A4
:1005A000AF0146C086E290E20E94AF0141C08FE2F7
:1005B00090E20E94AF013CC089E390E20E94AF014B
:1005C00037C083E490E20E94AF0132C08EE490E233
:1005D0000E94AF012DC089E690E20E94AF0128C0C1
:1005E00082E790E20E94AF0123C08BE790E20E9475
:1005F000AF011EC085EA90E20E94AF0119C083EBF3
:1006000090E20E94AF0114C08DEB90E20E94AF0116
:100610000FC086EC90E20E94AF010AC082E790E230
:100620000E94AF0105C088ED90E20E94AF0100007A
:100630000000DF91CF910895CF93DF9300D0CDB725
:10064000DEB78FE49BE489839A831B82809100202C
:1006500090910120092E000CAA0BBB0B4EEF5FEF0F
:1006600020E130E0841B950B2817390708F403C5F7
:10067000FC018827E55FFE4F8F4F0C94E8086CE380
:1006800071E2CE0101960E94F108892BB1F58CE34D
:1006900091E2892F8F938CE391E28F9385EE90E224
:1006A000892F8F9385EE90E28F930E9403090F901C
:1006B0000F900F900F908091002090910120019653
:1006C0008093002090930120809100209091012040
:1006D000292F2F938F938AEE90E2892F8F938AEEA2
:1006E00090E28F930E9403090F900F900F900F904C
:1006F000109251210E94A60208C08091512185309C
:1007000021F4109251210E94A6026CE371E2CE0105
:1007100001960E94F108892BB1F58CE391E2892FB3
:100720008F938CE391E28F9385EE90E2892F8F93E4
:1007300085EE90E28F930E9403090F900F900F9027
:100740000F908091002090910120019680930020CD
:10075000909301208091002090910120292F2F93C8
:100760008F938AEE90E2892F8F938AEE90E28F9397
:100770000E9403090F900F900F900F90109251213B
:100780000E94A60208C080915121853021F4109268
:1007900051210E94A6026CE371E2CE0101960E94F3
:1007A000F108892BB1F58CE391E2892F8F938CE3CB
:1007B00091E28F9385EE90E2892F8F9385EE90E200
:1007C0008F930E9403090F900F900F900F908091CC
:1007D00000209091012001968093002090930120A9
:1007E0008091002090910120292F2F938F938AEEE2
:1007F00090E2892F8F938AEE90E28F930E940309F3
:100800000F900F900F900F90109251210E94A6020E
:1008100015C480915121853009F010C410925121E6
:100820000E94A6020BC46CE371E2CE0101960E9405
:10083000F108892BB1F58CE391E2892F8F938CE33A
:1008400091E28F9385EE90E2892F8F9385EE90E26F
:100850008F930E9403090F900F900F900F9080913B
:100860000020909101200196809300209093012018
:100870008091002090910120292F2F938F938AEE51
:1008800090E2892F8F938AEE90E28F930E94030962
:100890000F900F900F900F90109251210E94A6027E
:1008A000CFC380915121853009F0CAC310925121E4
:1008B0000E94A602C5C36CE371E2CE0101960E94BC
:1008C000F108892BB1F58CE391E2892F8F938CE3AA
:1008D00091E28F9385EE90E2892F8F9385EE90E2DF
:1008E0008F930E9403090F900F900F900F908091AB
:1008F0000020909101200196809300209093012088
:100900008091002090910120292F2F938F938AEEC0
:1009100090E2892F8F938AEE90E28F930E940309D1
:100920000F900F900F900F90109251210E94A602ED
:1009300089C380915121853009F084C310925121DF
:100940000E94A6027FC36CE371E2CE0101960E9471
:10095000F108892BB1F58CE391E2892F8F938CE319
:1009600091E28F9385EE90E2892F8F9385EE90E24E
:100970008F930E9403090F900F900F900F9080911A
:1009800000209091012001968093002090930120F7
:100990008091002090910120292F2F938F938AEE30
:1009A00090E2892F8F938AEE90E28F930E94030941
:1009B0000F900F900F900F90109251210E94A6025D
:1009C00043C380915121853009F03EC310925121DB
:1009D0000E94A60239C36CE371E2CE0101960E9427
:1009E000F108892BB1F58CE391E2892F8F938CE389
:1009F00091E28F9385EE90E2892F8F9385EE90E2BE
:100A00008F930E9403090F900F900F900F90809189
:100A10000020909101200196809300209093012066
:100A2000109251218091002090910120292F2F9325
:100A30008F938AEE90E2892F8F938AEE90E28F93C4
:100A40000E9403090F900F900F900F900E94A60232
:100A5000FDC280915121853009F0F8C210925121D8
:100A60000E94A602F3C26CE371E2CE0101960E94DD
:100A7000F108892BB1F58CE391E2892F8F938CE3F8
:100A800091E28F9385EE90E2892F8F9385EE90E22D
:100A90008F930E9403090F900F900F900F908091F9
:100AA00000209091012001968093002090930120D6
:100AB000109251218091002090910120292F2F9395
:100AC0008F938AEE90E2892F8F938AEE90E28F9334
:100AD0000E9403090F900F900F900F900E94A602A2
:100AE000B7C280915121853009F0B2C210925121D4
:100AF0000E94A602ADC26CE371E2CE0101960E9493
:100B0000F108892BB1F58CE391E2892F8F938CE367
:100B100091E28F9385EE90E2892F8F9385EE90E29C
:100B20008F930E9403090F900F900F900F90809168
:100B30000020909101200196809300209093012045
:100B4000109251218091002090910120292F2F9304
:100B50008F938AEE90E2892F8F938AEE90E28F93A3
:100B60000E9403090F900F900F900F900E94A60211
:100B700071C280915121853009F06CC210925121CF
:100B80000E94A60267C28CE391E2892F8F938CE3C7
:100B900091E28F9385EE90E2892F8F9385EE90E21C
:100BA0008F930E9403090F900F900F900F908CE38A
:100BB00091E20E94FA08292F2F938F938FEE90E2F3
:100BC000892F8F938FEE90E28F930E9403090F90ED
:100BD0000F900F900F908CE391E20E94FA080D970E
:100BE000B1F58CE391E2892F8F938CE391E28F939F
:100BF00085EE90E2892F8F9385EE90E28F930E948D
:100C000003090F900F900F900F908091002090910A
:100C10000120019680930020909301201092512191
:100C20008091002090910120292F2F938F938AEE9D
:100C300090E2892F8F938AEE90E28F930E940309AE
:100C40000F900F900F900F900E94A60205C2809106
:100C50005121853009F000C2109251210E94A60254
:100C6000FBC16CE371E2CE0101960E94F108892B71
:100C7000B1F58CE391E2892F8F938CE391E28F930E
:100C800085EE90E2892F8F9385EE90E28F930E94FC
:100C900003090F900F900F900F908091002090917A
:100CA0000120019680930020909301201092512101
:100CB0008091002090910120292F2F938F938AEE0D
:100CC00090E2892F8F938AEE90E28F930E9403091E
:100CD0000F900F900F900F900E94A602BFC18091BD
:100CE0005121853009F0BAC1109251210E94A6020B
:100CF000B5C16CE371E28CEF90E20E94F108892BA0
:100D0000B1F58CE391E2892F8F938CE391E28F937D
:100D100085EE90E2892F8F9385EE90E28F930E946B
:100D200003090F900F900F900F90809100209091E9
:100D30000120019680930020909301201092512170
:100D40008091002090910120292F2F938F938AEE7C
:100D500090E2892F8F938AEE90E28F930E9403098D
:100D60000F900F900F900F900E94A60279C1809172
:100D70005121853009F074C1109251210E94A602C0
:100D80006FC16CE371E2CE0101960E94F108892BDC
:100D9000B1F58CE391E2892F8F938CE391E28F93ED
:100DA00085EE90E2892F8F9385EE90E28F930E94DB
:100DB00003090F900F900F900F9080910020909159
:100DC00001200196809300209093012010925121E0
:100DD0008091002090910120292F2F938F938AEEEC
:100DE00090E2892F8F938AEE90E28F930E940309FD
:100DF0000F900F900F900F900E94A60233C1809128
:100E00005121853009F02EC1109251210E94A60275
:100E100029C16CE371E285E091E20E94F108892B1F
:100E2000B1F58CE391E2892F8F938CE391E28F935C
:100E300085EE90E2892F8F9385EE90E28F930E944A
:100E400003090F900F900F900F90809100209091C8
:100E5000012001968093002090930120109251214F
:100E60008091002090910120292F2F938F938AEE5B
:100E700090E2892F8F938AEE90E28F930E9403096C
:100E80000F900F900F900F900E94A602EDC08091DE
:100E90005121853009F0E8C0109251210E94A6022C
:100EA000E3C06CE371E282E191E20E94F108892BD8
:100EB000B1F580910020909101200196809300204F
:100EC00090930120109251218CE391E2892F8F930E
:100ED0008CE391E28F9385EE90E2892F8F9385EEDC
:100EE00090E28F930E9403090F900F900F900F9044
:100EF0008091002090910120292F2F938F938AEECB
:100F000090E2892F8F938AEE90E28F930E940309DB
:100F10000F900F900F900F900E94A602A7C0809193
:100F20005121853009F0A2C0109251210E94A602E1
:100F30009DC08CE391E20E94FA080D97B1F58CE315
:100F400091E2892F8F938CE391E28F9385EE90E26B
:100F5000892F8F9385EE90E28F930E9403090F9063
:100F60000F900F900F90809100209091012001969A
:100F700080930020909301201092512180910020B5
:100F800090910120292F2F938F938AEE90E2892F41
:100F90008F938AEE90E28F930E9403090F900F9037
:100FA0000F900F900E94A60263C08091512185305E
:100FB00009F05EC0109251210E94A60259C06CE354
:100FC00071E28CE191E20E94F108892B71F58CE3CA
:100FD00091E2892F8F938CE391E28F9385EE90E2DB
:100FE000892F8F9385EE90E28F930E9403090F90D3
:100FF0000F900F900F901092512181E080933A2131
:101000008091002090910120292F2F938F938AEEB9
:1010100090E2892F8F938AEE90E28F930E940309CA
:101020000F900F900F900F9025C080915121853027
:1010300009F5109251210E94A6021CC000001BC09D
:10104000000019C0000017C0000015C0000013C048
:10105000000011C000000FC000000DC000000BC058
:10106000000009C0000007C0000005C0000003C068
:10107000000001C0000000002396CDBFDEBFDF915D
:10108000CF910895CF93DF93CDB7DEB784E391E29C
:10109000892F8F9384E391E28F930E9403090F902D
:1010A0000F900000DF91CF910895CF93DF9300D090
:1010B000CDB7DEB789836A837B8389818A3031F437
:1010C0008A819B81BC018DE00E945508000080EA66
:1010D00098E0FC018181882F90E080729927892B0C
:1010E000B1F380EA98E02981FC01208380E090E060
:1010F0002396CDBFDEBFDF91CF910895CF93DF93CD
:10110000CDB7DEB780E496E028E0FC01258380E4DB
:1011100096E028E0FC01218380EA98E0FC01178238
:1011200080EA98E02CE0FC01268380EA98E0FC014C
:10113000138280EA98E023E0FC01258380EA98E0AE
:1011400028E0FC01248382E090E280935721909371
:1011500058210000DF91CF910895CF93DF93CDB751
:10116000DEB70E947E080E948A010E94C2080E9487
:1011700006020E94A602809152218130E1F710926E
:101180005221F9CFCF93DF93CDB7DEB780E590E062
:1011900020E530E0F90120812260FC01208300007D
:1011A00080E590E0FC018181882F90E08270992792
:1011B000892BB1F384E390E028EDFC01208380E4E7
:1011C00090E021E0FC0120830000DF91CF910895A1
:1011D000EE0FFF1F881F8BBF0790F691E02D1BBEFF
:1011E0001994FB01DC018D91019080190110D9F354
:1011F000990B0895FC0101900020E9F780959095E6
:101200008E0F9F1F0895CF93DF93CDB7DEB7AE014A
:101210004A5F5F4FFA0161917191AF01809157214F
:10122000909158210E941709DF91CF9108952F9234
:101230003F924F925F926F927F928F929F92AF9266
:10124000BF92CF92DF92EF92FF920F931F93CF93B3
:10125000DF93CDB7DEB72B97CDBFDEBF6C017B012F
:101260008A01FC0116821782838181FFCCC1CE01E5
:1012700001963C01F6019381F70193FD859193FF5F
:1012800081917F01882309F4BAC1853239F493FD35
:10129000859193FF81917F01853229F4B60190E019
:1012A0000E94310BE7CF912C212C312CFFE1F3155B
:1012B000D8F08B3279F038F4803279F08332A1F4AF
:1012C000232D20611DC08D3261F0803369F4232D00
:1012D000216016C0832D8260382EE32DE4603E2EFF
:1012E0002AC0F32DF8601DC037FC2DC020ED280F5B
:1012F0002A3040F08E32B9F436FC81C1232D2064AF
:10130000322E19C036FE06C08AE0989E200D1124A8
:10131000922E11C0EAE02E9E200D1124222EF32DD4
:10132000F0623F2E08C08C3621F4832D8068382E61
:1013300002C0883641F4F70193FD859193FF8191B6
:101340007F018111B3CF982F9F7D9554933028F45E
:101350000C5F1F4F9FE399830DC0833631F08337B5
:1013600071F0833509F059C021C0F801808189836B
:101370000E5F1F4F88248394912C530113C02801C2
:10138000F2E04F0E511CF801A080B18036FE03C080
:10139000692D70E002C06FEF7FEFC5010E94260B40
:1013A0004C018201F32DFF773F2E16C0280122E069
:1013B000420E511CF801A080B18036FE03C0692D99
:1013C00070E002C06FEF7FEFC5010E941B0B4C0164
:1013D000F32DF0683F2E820133FC1BC0822D90E07C
:1013E00088169906B0F4B60180E290E00E94310BB5
:1013F0002A94F4CFF50137FC859137FE81915F0186
:10140000B60190E00E94310B21102A9421E0821A4B
:1014100091088114910471F7E8C0843611F089367F
:1014200041F5F80137FE07C06081718182819381A7
:101430000C5F1F4F08C060817181072E000C880B64
:10144000990B0E5F1F4FF32DFF763F2E97FF09C0BC
:1014500090958095709561957F4F8F4F9F4FF06865
:101460003F2E2AE030E0A3010E946D0B882E8618E3
:1014700045C0853731F4232D2F7EB22E2AE030E08F
:1014800025C0932D997FB92E8F36C1F018F4883579
:1014900079F0B5C0803719F0883721F0B0C0E92F56
:1014A000E061BE2EB4FE0DC0FB2DF460BF2E09C05E
:1014B00034FE0AC0292F2660B22E06C028E030E094
:1014C00005C020E130E002C020E132E0F801B7FEC3
:1014D00007C060817181828193810C5F1F4F06C0BC
:1014E0006081718180E090E00E5F1F4FA3010E9438
:1014F0006D0B882E8618FB2DFF773F2E36FE0DC014
:10150000232D2E7FA22E891458F434FE0BC032FCFA
:1015100009C0832D8E7EA82E05C0B82CA32C03C035
:10152000B82C01C0B92CA4FE0FC0FE01E80DF11DBE
:101530008081803321F49A2D997EA92E09C0A2FEC4
:1015400006C0B394B39404C08A2D867809F0B3948E
:10155000A3FC11C0A0FE06C0B21488F4280C922C83
:101560009B180EC0B21460F4B60180E290E00E94B5
:10157000310BB394F7CFB21418F42B1802C0982C87
:10158000212CA4FE10C0B60180E390E00E94310B34
:10159000A2FE17C0A1FC03C088E790E002C088E566
:1015A00090E0B6010CC08A2D867859F0A1FE02C0E9
:1015B0008BE201C080E2A7FC8DE2B60190E00E94C0
:1015C000310B891438F4B60180E390E00E94310BAE
:1015D0009A94F7CF8A94F301E80DF11D8081B6014A
:1015E00090E00E94310B8110F5CF222009F442CE09
:1015F000B60180E290E00E94310B2A94F6CFF6010A
:101600008681978102C08FEF9FEF2B96CDBFDEBF03
:10161000DF91CF911F910F91FF90EF90DF90CF90CE
:10162000BF90AF909F908F907F906F905F904F9002
:101630003F902F900895FC0105906150704001107B
:10164000D8F7809590958E0F9F1F0895FC016150EB
:10165000704001900110D8F7809590958E0F9F1FD4
:1016600008950F931F93CF93DF93FB01238121FDF7
:1016700003C08FEF9FEF2CC022FF16C04681578119
:10168000248135814217530744F4A081B1819D0123
:101690002F5F3F4F208331838C93268137812F5FCB
:1016A0003F4F2683378314C08B01EC01FB0100847C
:1016B000F185E02D1995892BE1F6D80116968D91CB
:1016C0009C911797019616968D939C931797CE0130
:1016D000DF91CF911F910F910895FA01AA27283029
:1016E00051F1203181F1E8946F936E7F6E5F7F4FEF
:1016F0008F4F9F4FAF4FB1E03ED0B4E03CD0670F6B
:10170000781F891F9A1FA11D680F791F8A1F911DBD
:10171000A11D6A0F711D811D911DA11D20D009F40D
:1017200068943F912AE0269F11243019305D31934F
:10173000DEF6CF010895462F4770405D4193B3E038
:101740000FD0C9F7F6CF462F4F70405D4A3318F0DF
:10175000495D31FD4052419302D0A9F7EACFB4E090
:10176000A6959795879577956795BA95C9F7009748
:101770006105710508959B01AC010A2E06945795E9
:10178000479537952795BA95C9F7620F731F841F40
:0A179000951FA01D0895F894FFCFE7
:10179A00FEFF0000000200000000550800000000E3
:1017AA0041540041542B4950523D393630300041A2
:1017BA00542B4353510041542B435245473F004158
:1017CA00542B43474143543F0041542B434D454515
:1017DA003D310041542B43474154543D310041545B
:1017EA002B435354543D22696E7465726E65742E90
:1017FA00742D64312E6465220041542B43494943B8
:10180A00520041542B43494653520041542B4349F9
:10181A005053544152543D22544350222C223734BF
:10182A002E3132342E3139342E323532222C2238AE
:10183A0030220A0D0041542B434950434C4F534523
:10184A003D300041542B4346554E3D310041542B07
:10185A004350494E3F0041542B4349505345525639
:10186A0045523D312C38300041542B434950535492
:10187A00415455530025730A0D0025640A0D00537F
:10188A006368726974742025640A0D00434C4F53CF
:10189A0045204F4B0053494D20697320726561649E
:1018AA007900534552564552204F4B0053544154E8
:1018BA00453A20534552564552204C495354454EB9
:0A18CA00494E470068616C6C6F0026
:00000001FF
