S00F0000555341525456312E73726563FF
S11300000C9456010C947C010C947C010C947C019E
S11300100C947C010C947C010C947C010C947C0168
S11300200C947C010C947C010C947C010C947C0158
S11300300C947C010C947C010C947C010C947C0148
S11300400C947C010C947C010C947C010C947C0138
S11300500C947C010C947C010C947C010C947C0128
S11300600C947C010C947C010C947C010C947C0118
S11300700C947C010C947C010C947C010C947C0108
S11300800C947C010C947C010C947C010C947C01F8
S11300900C947C010C947C010C947C010C947C01E8
S11300A00C947C010C947C010C947C010C947C01D8
S11300B00C947C010C947C010C947C010C947C01C8
S11300C00C947C010C947C010C947C010C947C01B8
S11300D00C947C010C947C010C947C010C947C01A8
S11300E00C947C010C947C010C947C010C947C0198
S11300F00C947C010C947C010C947C010C947C0188
S11301000C947C010C947C010C947C010C947C0177
S11301100C947C010C947C010C947C010C947C0167
S11301200C947C010C947C010C947C010C947C0157
S11301300C947C010C947C010C947C010C947C0147
S11301400C947C010C947C010C947C010C947C0137
S11301500C947C010C947C010C947C010C947C0127
S11301600C947C010C947C010C947C010C947C0117
S11301700C947C010C947C010C947C010C947C0107
S11301800C947C010C947C010C947C010C947C01F7
S11301900C947C010C947C010C947C010C947C01E7
S11301A00C947C010C947C010C947C010C947C01D7
S11301B00C947C010C947C010C947C010C947C01C7
S11301C00C947C010C947C010C947C010C947C01B7
S11301D00C947C010C947C010C947C010C940C0216
S11301E00C947C010C947C010C947C010C947C0197
S11301F00C947C01B702BC02C102C602CB02D0023D
S1130200D502E502F502FA02FF02040309030E0314
S113021013033F038103C303050447049404E10467
S113022023057205B905000647068E06D5061C0788
S11302300C943F030C94C6020C94B7020C94C102B4
S11302400C948E060C94F5020C9409030C94D502BC
S11302500C9400060C9472050C94D0020C940E03BA
S11302600C9404030C94FA020C9413030C94B90533
S11302700C94D5060C94E1040C94CB020C94230545
S11302800C941C070C94C3030C9495070C94FF0264
S11302900C9481030C9447060C94E5020C94BC0264
S11302A00C9494040C9405040C94470411241FBE6C
S11302B0CFEFCDBFDFE3DEBF00E00CBF18BE19BE39
S11302C01ABE1BBE11E2A0E0B0E2EAE1F6E100E0F2
S11302D00BBF02C007900D92A236B107D9F71BBE1F
S11302E021E2A2E6B1E201C01D92A438B207E1F70F
S11302F00E94ED070C940B0B0C940000CF93DF933A
S1130300CDB7DEB780EA9BE0FC01178280EA9BE070
S11303102CE0FC01268380EA9BE020E3FC0123839C
S113032080EA9BE028E1FC01248380EA9BE023E04F
S1130330FC01258380EA96E028E0FC01208300008C
S1130340DF91CF910895CF93DF9300D01F92CDB763
S1130350DEB78B839C831A8219828B819C810E94D5
S11303603A088A831BC0000080EA9BE0FC0181817B
S1130370882F90E080729927892BB1F380EA9BE063
S11303802981222F30E04B815C81240F351FF90134
S11303902081FC01208389818F5F898399818A81EF
S11303A0981708F31982000080EA9BE0FC01818120
S11303B0882F90E080729927892BB1F380EA9BE023
S11303C02AE0FC012083000080EA9BE0FC0181819B
S11303D0882F90E080729927892BB1F380EA9BE003
S11303E02DE0FC01208300002496CDBFDEBFDF9109
S11303F0CF910895CF93DF93CDB7DEB780EA90E035
S113040020EA30E0F90122812760FC0122837894FC
S11304100000DF91CF9108951F920F9200903F004A
S11304200F921124009038000F921092380000901F
S113043039000F921092390000903A000F921092F6
S11304403A0000903B000F9210923B002F933F9391
S11304504F935F936F937F938F939F93AF93BF93C8
S1130460EF93FF93CF93DF93CDB7DEB780EA9BE0A2
S1130470FC01808180937C2180917B218823C9F5B4
S113048080917C218A30C1F080917C218D30A1F053
S113049080916421843180F480916421882F90E0DC
S11304A020917C218B599E4DFC01208380916421F5
S11304B08F5F809364211DC080916421882F90E018
S11304C08B599E4DFC0110821092642181E080932F
S11304D07B219091622181E08927882341F08091DA
S11304E07A218F5F80937A210E941C0302C00E94AC
S11304F082070000DF91CF91FF91EF91BF91AF91FF
S11305009F918F917F916F915F914F913F912F9127
S11305100F9000923B000F9000923A000F900092CF
S113052039000F90009238000F9000923F000F9016
S11305301F901895CF93DF93CDB7DEB780916321D9
S1130540882F90E0092E000CAA0BBB0B40E050E072
S11305502EE030E0841B950B2817390708F468C097
S1130560FC018827E650FF4F8F4F0C9428088EE03B
S113057090E20E94A3015CC085E190E20E94A30185
S113058057C08EE190E20E94A30152C088E290E23B
S11305900E94A3014DC082E390E20E94A30148C0DF
S11305A08DE390E20E94A30143C088E590E20E949B
S11305B0A30181E690E2892F8F9381E690E28F93E5
S11305C00E9443080F900F9033C08CE690E20E9483
S11305D0A30185E790E2892F8F9385E790E28F93BB
S11305E00E9443080F900F9023C080E890E20E947D
S11305F0A3011EC08AEA90E20E94A30119C088EBFD
S113060090E20E94A30114C082EC90E20E94A30134
S11306100FC08BEC90E20E94A3010AC08CE690E22A
S11306200E94A30105C08DED90E20E94A301000089
S11306300000DF91CF910895CF93DF9300D0CDB721
S1130640DEB78FE49BE489839A831B8280916321C4
S1130650882F90E0092E000CAA0BBB0B40E050E061
S11306602EE030E0841B950B2817390708F443C4A7
S1130670FC018827E75FFE4F8F4F0C94280865E63E
S113068071E2CE0101960E943108892B81F585E63D
S113069091E2892F8F9385E691E28F938AEE90E21F
S11306A0892F8F938AEE90E28F930E9443080F90D4
S11306B00F900F900F9081E08093632180916321CC
S11306C0882F90E0292F2F938F938FEE90E2892F1C
S11306D08F938FEE90E28F930E9443080F900F90B8
S11306E00F900F9010927A210E949A02E9C3809190
S11306F07A21853009F0E4C310927A210E949A028B
S1130700DFC365E671E2CE0101960E943108892BB0
S113071081F585E691E2892F8F9385E691E28F93A7
S11307208AEE90E2892F8F938AEE90E28F930E9453
S113073043080F900F900F900F9082E080936321F5
S113074080916321882F90E0292F2F938F938FEE30
S113075090E2892F8F938FEE90E28F930E9443084B
S11307600F900F900F900F9010927A210E949A028E
S1130770A9C380917A21853009F0A4C310927A210B
S11307800E949A029FC365E671E2CE0101960E941F
S11307903108892B81F585E691E2892F8F9385E6CF
S11307A091E28F938AEE90E2892F8F938AEE90E202
S11307B08F930E9443080F900F900F900F9083E047
S11307C08093632180916321882F90E0292F2F93B8
S11307D08F938FEE90E2892F8F938FEE90E28F9319
S11307E00E9443080F900F900F900F9010927A215F
S11307F00E949A0269C380917A21853009F064C30A
S113080010927A210E949A025FC365E671E2CE01DA
S113081001960E943108892B81F585E691E2892FA2
S11308208F9385E691E28F938AEE90E2892F8F93DE
S11308308AEE90E28F930E9443080F900F900F90DE
S11308400F9084E08093632180916321882F90E04E
S1130850292F2F938F938FEE90E2892F8F938FEE12
S113086090E28F930E9443080F900F900F900F9087
S113087010927A210E949A0229C380917A218530AC
S113088009F024C310927A210E949A021FC384EFB4
S113089090E2892F8F9384EF90E28F930E94430814
S11308A00F900F9065E671E2CE0101960E94310827
S11308B0892B81F585E691E2892F8F9385E691E274
S11308C08F938AEE90E2892F8F938AEE90E28F9332
S11308D00E9443080F900F900F900F9085E0809333
S11308E0632110927A2180916321882F90E0292F2F
S11308F02F938F938FEE90E2892F8F938FEE90E258
S11309008F930E9443080F900F900F900F900E94B6
S11309109A02DEC280917A21853009F0D9C2109200
S11309207A210E949A02D4C28BEF90E2892F8F938E
S11309308BEF90E28F930E9443080F900F9065E62F
S113094071E2CE0101960E943108892B91F585E66A
S113095091E2892F8F9385E691E28F938AEE90E25C
S1130960892F8F938AEE90E28F930E9443080F9011
S11309700F900F900F90809163218F5F809363217C
S113098010927A2180916321882F90E0292F2F9350
S11309908F938FEE90E2892F8F938FEE90E28F9357
S11309A00E9443080F900F900F900F900E949A029C
S11309B091C280917A21853009F08CC20E949A02FA
S11309C089C265E671E2CE0101960E943108892B45
S11309D091F585E691E2892F8F9385E691E28F93D5
S11309E08AEE90E2892F8F938AEE90E28F930E9491
S11309F043080F900F900F900F90809163218F5FA9
S1130A008093632110927A2180916321882F90E052
S1130A10292F2F938F938FEE90E2892F8F938FEE50
S1130A2090E28F930E9443080F900F900F900F90C5
S1130A300E949A0251C280917A21853009F04CC2F9
S1130A400E949A0249C265E671E284E091E20E9442
S1130A503108892BB9F485E691E2892F8F9385E6D5
S1130A6091E28F938AEE90E2892F8F938AEE90E23F
S1130A708F930E9443080F900F900F900F900E9445
S1130A809A0239C285E691E2892F8F9385E691E235
S1130A908F938AE091E2892F8F938AE091E28F937A
S1130AA00E9443080F900F900F900F908091632144
S1130AB08F5F8093632180916321882F90E0292F99
S1130AC02F938F938FEE90E2892F8F938FEE90E286
S1130AD08F930E9443080F900F900F900F900E94E5
S1130AE09A0209C265E671E2CE0101960E943108BC
S1130AF0892B91F585E691E2892F8F9385E691E222
S1130B008F938AEE90E2892F8F938AEE90E28F93EF
S1130B100E9443080F900F900F900F9080916321D3
S1130B208F5F8093632110927A2180916321882FB3
S1130B3090E0292F2F938F938FEE90E2892F8F933C
S1130B408FEE90E28F930E9443080F900F900F90C6
S1130B500F900E949A02C2C180917A21863008F0D7
S1130B60BDC180917A218F5F80937A210E949A027D
S1130B70B5C165E671E285E191E20E943108892BF5
S1130B8091F585E691E2892F8F9385E691E28F9323
S1130B908AEE90E2892F8F938AEE90E28F930E94DF
S1130BA043080F900F900F900F90809163218F5FF7
S1130BB08093632110927A2180916321882F90E0A1
S1130BC0292F2F938F938FEE90E2892F8F938FEE9F
S1130BD090E28F930E9443080F900F900F900F9014
S1130BE00E949A027DC180917A21863008F078C1F2
S1130BF080917A218F5F80937A210E949A0270C13A
S1130C0065E671E2CE0101960E943108892B91F5C7
S1130C1085E691E2892F8F9385E691E28F938AEEA0
S1130C2090E2892F8F938AEE90E28F930E9443087B
S1130C300F900F900F900F90809163218F5F80939E
S1130C40632110927A2180916321882F90E0292FCB
S1130C502F938F938FEE90E2892F8F938FEE90E2F4
S1130C608F930E9443080F900F900F900F900E9453
S1130C709A0238C180917A21863008F033C180917C
S1130C807A218F5F80937A210E949A022BC165E6B4
S1130C9071E28EE191E20E943108892B91F585E69B
S1130CA091E2892F8F9385E691E28F938AEE90E209
S1130CB0892F8F938AEE90E28F930E9443080F90BE
S1130CC00F900F900F90809163218F5F8093632129
S1130CD010927A2180916321882F90E0292F2F93FD
S1130CE08F938FEE90E2892F8F938FEE90E28F9304
S1130CF00E9443080F900F900F900F900E949A0249
S1130D00F3C080917A21863008F0EEC080917A2178
S1130D108F5F80937A210E949A02E6C065E671E2B1
S1130D208BE291E20E943108892B91F58091632135
S1130D308F5F8093632110927A2185E691E2892F57
S1130D408F9385E691E28F938AEE90E2892F8F93B9
S1130D508AEE90E28F930E9443080F900F900F90B9
S1130D600F9080916321882F90E0292F2F938F93E8
S1130D708FEE90E2892F8F938FEE90E28F930E94F3
S1130D8043080F900F900F900F900E949A02AEC0EC
S1130D9080917A21863008F0A9C080917A218F5FF2
S1130DA080937A210E949A02A1C065E671E285E3EC
S1130DB091E20E943108892B91F585E691E2892F11
S1130DC08F9385E691E28F938AEE90E2892F8F9339
S1130DD08AEE90E28F930E9443080F900F900F9039
S1130DE00F90809163218F5F8093632110927A2109
S1130DF080916321882F90E0292F2F938F938FEE7A
S1130E0090E2892F8F938FEE90E28F930E94430894
S1130E100F900F900F900F900E949A0269C08091DA
S1130E207A21863008F064C080917A218F5F8093A4
S1130E307A210E949A025CC065E671E283E491E241
S1130E400E943108892B81F585E691E2892F8F93E1
S1130E5085E691E28F938AEE90E2892F8F938AEE52
S1130E6090E28F930E9443080F900F900F900F9081
S1130E7010927A2181E08093622180916321882FEE
S1130E8090E0292F2F938F938FEE90E2892F8F93E9
S1130E908FEE90E28F930E9443080F900F900F9073
S1130EA00F900E949A0226C080917A21863010F514
S1130EB080917A218F5F80937A210E949A021AC0CE
S1130EC0000019C0000017C0000015C0000013C0C6
S1130ED0000011C000000FC000000DC000000BC0D6
S1130EE0000009C0000007C0000005C0000003C0E6
S1130EF0000001C0000000002396CDBFDEBFDF91DB
S1130F00CF910895CF93DF93CDB7DEB78BE591E210
S1130F10892F8F938BE591E28F930E9443080F9062
S1130F200F900000DF91CF910895CF93DF9300D00D
S1130F30CDB7DEB789836A837B8389818A3031F4B4
S1130F408A819B81BC018DE00E949507000080EAA4
S1130F5098E0FC018181882F90E080729927892B89
S1130F60B1F380EA98E02981FC01208380E090E0DD
S1130F702396CDBFDEBFDF91CF910895CF93DF934A
S1130F80CDB7DEB780E496E028E0FC01258380E459
S1130F9096E028E0FC01218380EA98E0FC011782B6
S1130FA080EA98E02CE0FC01268380EA98E0FC01CA
S1130FB0138280EA98E023E0FC01258380EA98E02C
S1130FC028E0FC01248380E090E2809380219093C8
S1130FD081210000DF91CF910895CF93DF93CDB7A6
S1130FE0DEB70E94BE070E947E010E9402080E9492
S1130FF0FA010E949A0280917B218130E1F71092DC
S11310007B21F9CFCF93DF93CDB7DEB780E590E0B6
S113101020E530E0F90120812260FC0120830000FA
S113102080E590E0FC018181882F90E0827099270F
S1131030892BB1F384E390E028EDFC01208380E464
S113104090E021E0FC0120830000DF91CF9108951E
S1131050EE0FFF1F881F8BBF0790F691E02D1BBE7C
S11310601994FB01DC018D91019080190110D9F3D1
S1131070990B0895FC0101900020E9F78095909563
S11310808E0F9F1F0895CF93DF93CDB7DEB7AE01C8
S11310904A5F5F4FFA0161917191AF0180918021A4
S11310A0909181210E945708DF91CF9108952F924A
S11310B03F924F925F926F927F928F929F92AF92E4
S11310C0BF92CF92DF92EF92FF920F931F93CF9331
S11310D0DF93CDB7DEB72B97CDBFDEBF6C017B01AD
S11310E08A01FC0116821782838181FFCCC1CE0163
S11310F001963C01F6019381F70193FD859193FFDD
S113110081917F01882309F4BAC1853239F493FDB2
S1131110859193FF81917F01853229F4B60190E096
S11311200E94710AE7CF912C212C312CFFE1F31599
S1131130D8F08B3279F038F4803279F08332A1F42C
S1131140232D20611DC08D3261F0803369F4232D7D
S1131150216016C0832D8260382EE32DE4603E2E7C
S11311602AC0F32DF8601DC037FC2DC020ED280FD8
S11311702A3040F08E32B9F436FC81C1232D20642C
S1131180322E19C036FE06C08AE0989E200D112426
S1131190922E11C0EAE02E9E200D1124222EF32D52
S11311A0F0623F2E08C08C3621F4832D8068382EDF
S11311B002C0883641F4F70193FD859193FF819134
S11311C07F018111B3CF982F9F7D9554933028F4DC
S11311D00C5F1F4F9FE399830DC0833631F0833733
S11311E071F0833509F059C021C0F80180818983E9
S11311F00E5F1F4F88248394912C530113C0280140
S1131200F2E04F0E511CF801A080B18036FE03C0FD
S1131210692D70E002C06FEF7FEFC5010E94660A7E
S11312204C018201F32DFF773F2E16C0280122E0E6
S1131230420E511CF801A080B18036FE03C0692D16
S113124070E002C06FEF7FEFC5010E945B0A4C01A2
S1131250F32DF0683F2E820133FC1BC0822D90E0F9
S113126088169906B0F4B60180E290E00E94710AF3
S11312702A94F4CFF50137FC859137FE81915F0103
S1131280B60190E00E94710A21102A9421E0821A8A
S113129091088114910471F7E8C0843611F08936FD
S11312A041F5F80137FE07C0608171818281938125
S11312B00C5F1F4F08C060817181072E000C880BE2
S11312C0990B0E5F1F4FF32DFF763F2E97FF09C03A
S11312D090958095709561957F4F8F4F9F4FF068E3
S11312E03F2E2AE030E0A3010E94AD0A882E861822
S11312F045C0853731F4232D2F7EB22E2AE030E00D
S113130025C0932D997FB92E8F36C1F018F48835F6
S113131079F0B5C0803719F0883721F0B0C0E92FD3
S1131320E061BE2EB4FE0DC0FB2DF460BF2E09C0DB
S113133034FE0AC0292F2660B22E06C028E030E011
S113134005C020E130E002C020E132E0F801B7FE40
S113135007C060817181828193810C5F1F4F06C039
S11313606081718180E090E00E5F1F4FA3010E94B5
S1131370AD0A882E8618FB2DFF773F2E36FE0DC052
S1131380232D2E7FA22E891458F434FE0BC032FC78
S113139009C0832D8E7EA82E05C0B82CA32C03C0B3
S11313A0B82C01C0B92CA4FE0FC0FE01E80DF11D3C
S11313B08081803321F49A2D997EA92E09C0A2FE42
S11313C006C0B394B39404C08A2D867809F0B3940C
S11313D0A3FC11C0A0FE06C0B21488F4280C922C01
S11313E09B180EC0B21460F4B60180E290E00E9433
S11313F0710AB394F7CFB21418F42B1802C0982CC6
S1131400212CA4FE10C0B60180E390E00E94710A72
S1131410A2FE17C0A1FC03C088E790E002C088E5E3
S113142090E0B6010CC08A2D867859F0A1FE02C066
S11314308BE201C080E2A7FC8DE2B60190E00E943D
S1131440710A891438F4B60180E390E00E94710AAD
S11314509A94F7CF8A94F301E80DF11D8081B601C7
S113146090E00E94710A8110F5CF222009F442CE47
S1131470B60180E290E00E94710A2A94F6CFF60148
S11314808681978102C08FEF9FEF2B96CDBFDEBF81
S1131490DF91CF911F910F91FF90EF90DF90CF904C
S11314A0BF90AF909F908F907F906F905F904F9080
S11314B03F902F900895FC010590615070400110F9
S11314C0D8F7809590958E0F9F1F0895FC01615069
S11314D0704001900110D8F7809590958E0F9F1F52
S11314E008950F931F93CF93DF93FB01238121FD75
S11314F003C08FEF9FEF2CC022FF16C04681578197
S1131500248135814217530744F4A081B1819D01A0
S11315102F5F3F4F208331838C93268137812F5F48
S11315203F4F2683378314C08B01EC01FB010084F9
S1131530F185E02D1995892BE1F6D80116968D9148
S11315409C911797019616968D939C931797CE01AD
S1131550DF91CF911F910F910895FA01AA272830A6
S113156051F1203181F1E8946F936E7F6E5F7F4F6C
S11315708F4F9F4FAF4FB1E03ED0B4E03CD0670FE8
S1131580781F891F9A1FA11D680F791F8A1F911D3B
S1131590A11D6A0F711D811D911DA11D20D009F48B
S11315A068943F912AE0269F11243019305D3193CD
S11315B0DEF6CF010895462F4770405D4193B3E0B6
S11315C00FD0C9F7F6CF462F4F70405D4A3318F05D
S11315D0495D31FD4052419302D0A9F7EACFB4E00E
S11315E0A6959795879577956795BA95C9F70097C6
S11315F06105710508959B01AC010A2E0694579567
S1131600479537952795BA95C9F7620F731F841FBD
S10D1610951FA01D0895F894FFCF64
S113161A0000000200000000950700000000415489
S113162A2B4353510041542B435245473F004154E5
S113163A2B43474143543F0041542B434D45453DB9
S113164A310041542B43474154543D310041542BFA
S113165A435354543D22696E7465726E65742E74D4
S113166A2D64312E6465220041542B434949435267
S113167A0041542B43494943520A0D0041542B4318
S113168A494653520041542B43494653520A0D00CA
S113169A41542B43495053544152543D22544350CC
S11316AA222C2237342E3132342E3139342E32352B
S11316BA32222C223830220A0D0041542B4349503D
S11316CA434C4F53453D300041542B4346554E3D00
S11316DA310041542B4350494E3F0041542B434956
S11316EA505345525645523D312C38300041542B03
S11316FA4349505354415455530025730A0D002548
S113170A640A0D006861616C6C6F0062696E20681E
S113171A696572004552524F520025730A0D2077AB
S113172A6965736F00434C4F5345204F4B0053492F
S113173A4D20697320726561647900534552564598
S113174A52204F4B0033372E38322E3137382E324F
S113175A31340053544154453A2053455256455264
S113176A204C495354454E494E470068616C6C6F8E
S105177A000069
S9030000FC
