S00F0000555341525456312E73726563FF
S11300000C9456010C947C010C947C010C947C019E
S11300100C947C010C947C010C947C010C947C0168
S11300200C947C010C947C010C947C010C947C0158
S11300300C947C010C947C010C947C010C947C0148
S11300400C947C010C947C010C947C010C947C0138
S11300500C947C010C947C010C947C010C947C0128
S11300600C947C010C947C010C947C010C947C0118
S11300700C947C010C947C010C947C010C947C0108
S11300800C947C010C947C010C947C010C947C01F8
S11300900C947C010C947C010C947C010C947C01E8
S11300A00C947C010C947C010C947C010C947C01D8
S11300B00C947C010C947C010C947C010C947C01C8
S11300C00C947C010C947C010C947C010C947C01B8
S11300D00C947C010C947C010C947C010C947C01A8
S11300E00C947C010C947C010C947C010C947C0198
S11300F00C947C010C947C010C947C010C947C0188
S11301000C947C010C947C010C947C010C947C0177
S11301100C947C010C947C010C947C010C947C0167
S11301200C947C010C947C010C947C010C947C0157
S11301300C947C010C947C010C947C010C947C0147
S11301400C947C010C947C010C947C010C947C0137
S11301500C947C010C947C010C947C010C947C0127
S11301600C947C010C947C010C947C010C947C0117
S11301700C947C010C947C010C947C010C947C0107
S11301800C947C010C947C010C947C010C947C01F7
S11301900C947C010C947C010C947C010C947C01E7
S11301A00C947C010C947C010C947C010C947C01D7
S11301B00C947C010C947C010C947C010C947C01C7
S11301C00C947C010C947C010C947C010C947C01B7
S11301D00C947C010C947C010C947C010C940C0216
S11301E00C947C010C947C010C947C010C947C0197
S11301F00C947C01B702C702D702E702F702070397
S11302001703270337033C03410346034B035003FF
S113021055038103C303050447048904CB040D0576
S11302204F05B705FE0545068C06D3061A07610778
S11302300C9481030C9450030C94B7020C940D0598
S11302400C9437030C9455030C94E7020C944B0361
S11302500C9441030C9407030C948C060C946107D2
S11302600C94FE050C9445060C94D3060C94B70527
S11302700C944F050C94F7020C9405040C94D702CB
S11302800C9446030C94DC070C94CB040C94C30329
S11302900C943C030C94C7020C9417030C941A0797
S11302A00C9447040C9427030C94890411241FBE56
S11302B0CFEFCDBFDFE3DEBF00E00CBF18BE19BE39
S11302C01ABE1BBE11E2A0E0B0E2E8EAF6E100E0EB
S11302D00BBF02C007900D92A639B107D9F71BBE18
S11302E021E2A6E9B1E201C01D92A83BB207E1F701
S11302F00E9434080C94520B0C940000CF93DF93AB
S1130300CDB7DEB780EA9BE0FC01178280EA9BE070
S11303102CE0FC01268380EA9BE020E3FC0123839C
S113032080EA9BE028E1FC01248380EA9BE023E04F
S1130330FC01258380EA96E028E0FC01208300008C
S1130340DF91CF910895CF93DF9300D01F92CDB763
S1130350DEB78B839C831A8219828B819C810E94D5
S113036081088A831BC0000080EA9BE0FC01818134
S1130370882F90E080729927892BB1F380EA9BE063
S11303802981222F30E04B815C81240F351FF90134
S11303902081FC01208389818F5F898399818A81EF
S11303A0981708F31982000080EA9BE0FC01818120
S11303B0882F90E080729927892BB1F380EA9BE023
S11303C02AE0FC012083000080EA9BE0FC0181819B
S11303D0882F90E080729927892BB1F380EA9BE003
S11303E02DE0FC01208300002496CDBFDEBFDF9109
S11303F0CF910895CF93DF93CDB7DEB780EA90E035
S113040020EA30E0F90122812760FC0122837894FC
S11304100000DF91CF9108951F920F9200903F004A
S11304200F921124009038000F921092380000901F
S113043039000F921092390000903A000F921092F6
S11304403A0000903B000F9210923B002F933F9391
S11304504F935F936F937F938F939F93AF93BF93C8
S1130460EF93FF93CF93DF93CDB7DEB780EA9BE0A2
S1130470FC0180818093B0218091AF218823C9F54C
S11304808091B0218A30C1F08091B0218D30A1F0EB
S113049080919821843180F480919821882F90E074
S11304A02091B02187569E4DFC0120838091982194
S11304B08F5F809398211DC080919821882F90E0B0
S11304C087569E4DFC0110821092982181E0809302
S11304D0AF219091962181E08927882341F0809172
S11304E0AE218F5F8093AE210E945E0302C00E9402
S11304F0C9070000DF91CF91FF91EF91BF91AF91B8
S11305009F918F917F916F915F914F913F912F9127
S11305100F9000923B000F9000923A000F900092CF
S113052039000F90009238000F9000923F000F9016
S11305301F901895CF93DF93CDB7DEB780919721A5
S1130540882F90E0092E000CAA0BBB0B40E050E072
S11305502EE030E0841B950B2817390708F4AAC055
S1130560FC018827E650FF4F8F4F0C946F088EE0F4
S113057090E20E94A30185E190E2892F8F9385E1A7
S113058090E28F930E948A080F900F9093C08EE19F
S113059090E20E94A30187E290E2892F8F9387E281
S11305A090E28F930E948A080F900F9083C082E399
S11305B090E20E94A3018CE390E2892F8F938CE355
S11305C090E28F930E948A080F900F9073C088E482
S11305D090E20E94A30182E590E2892F8F9382E545
S11305E090E28F930E948A080F900F9063C08EE56B
S11305F090E20E94A3018EE590E2892F8F938EE50D
S113060090E28F930E948A080F900F9053C089E65E
S113061090E20E94A30184E890E2892F8F9384E8FA
S113062090E28F930E948A080F900F9043C081EA52
S113063090E20E94A3018AEA90E2892F8F938AEACA
S113064090E28F930E948A080F900F9033C085EB3D
S113065090E20E94A3018EEB90E2892F8F938EEBA0
S113066090E28F930E948A080F900F9023C089EC28
S113067090E20E94A3011EC083EF90E20E94A301B6
S113068019C081E091E20E94A30114C08BE091E2C1
S11306900E94A3010FC084E191E20E94A3010AC059
S11306A085EB90E20E94A30105C086E291E20E94DC
S11306B0A30100000000DF91CF910895CF93DF9351
S11306C000D0CDB7DEB78FE49BE489839A831B8285
S11306D080919721882F90E0092E000CAA0BBB0B68
S11306E040E050E02EE030E0841B950B28173907DA
S11306F008F448C4FC018827E75FFE4F8F4F0C9431
S11307006F0869E971E2CE0101960E947808892B8D
S113071091F589E991E2892F8F9389E991E28F9389
S113072083E391E2892F8F9383E391E28F930E9475
S11307308A080F900F900F900F90809197218F5FF0
S11307408093972180919721882F90E0292F2F93D0
S11307508F9388E391E2892F8F9388E391E28F93BB
S11307600E948A080F900F900F900F901092AE2164
S11307700E949A02EAC38091AE21853009F0E5C354
S11307800E949A02E2C369E971E2CE0101960E94D5
S11307907808892B91F589E991E2892F8F9389E96A
S11307A091E28F9383E391E2892F8F9383E391E224
S11307B08F930E948A080F900F900F900F90809152
S11307C097218F5F8093972180919721882F90E0C4
S11307D0292F2F938F9388E391E2892F8F9388E3B6
S11307E091E28F930E948A080F900F900F900F90C0
S11307F01092AE210E949A02AAC38091AE21853044
S113080009F0A5C30E949A02A2C369E971E2CE016C
S113081001960E947808892B91F589E991E2892F44
S11308208F9389E991E28F9383E391E2892F8F93E8
S113083083E391E28F930E948A080F900F900F90A8
S11308400F90809197218F5F8093972180919721BA
S1130850882F90E0292F2F938F9388E391E2892F9B
S11308608F9388E391E28F930E948A080F900F90F0
S11308700F900F901092AE210E949A026AC3809149
S1130880AE21853009F065C30E949A0262C369E90A
S113089071E2CE0101960E947808892B91F589E9CD
S11308A091E2892F8F9389E991E28F9383E391E217
S11308B0892F8F9383E391E28F930E948A080F908C
S11308C00F900F900F90809197218F5F80939721C5
S11308D080919721882F90E0292F2F938F9388E37D
S11308E091E2892F8F9388E391E28F930E948A0883
S11308F00F900F900F900F901092AE210E949A02C9
S11309002AC38091AE21853009F025C30E949A0242
S113091022C369E971E2CE0101960E947808892B0D
S113092091F589E991E2892F8F9389E991E28F9377
S113093083E391E2892F8F9383E391E28F930E9463
S11309408A080F900F900F900F90809197218F5FDE
S1130950809397211092AE2180919721882F90E067
S1130960292F2F938F9388E391E2892F8F9388E324
S113097091E28F930E948A080F900F900F900F902E
S11309800E949A02EAC28091AE21853009F0E5C244
S11309900E949A02E2C269E971E2CE0101960E94C4
S11309A07808892B91F589E991E2892F8F9389E958
S11309B091E28F9383E391E2892F8F9383E391E212
S11309C08F930E948A080F900F900F900F90809140
S11309D097218F5F809397211092AE218091972168
S11309E0882F90E0292F2F938F9388E391E2892F0A
S11309F08F9388E391E28F930E948A080F900F905F
S1130A000F900F900E949A02AAC28091AE21853065
S1130A1009F0A5C20E949A02A2C269E971E2CE015C
S1130A2001960E947808892B91F589E991E2892F32
S1130A308F9389E991E28F9383E391E2892F8F93D6
S1130A4083E391E28F930E948A080F900F900F9096
S1130A500F90809197218F5F809397211092AE2100
S1130A6080919721882F90E0292F2F938F9388E3EB
S1130A7091E2892F8F9388E391E28F930E948A08F1
S1130A800F900F900F900F900E949A026AC280916B
S1130A90AE21853009F065C20E949A0262C289E9DA
S1130AA091E2892F8F9389E991E28F9383E391E215
S1130AB0892F8F9383E391E28F930E948A080F908A
S1130AC00F900F900F9089E991E20E948108292FDD
S1130AD02F938F938DE391E2892F8F938DE391E28E
S1130AE08F930E948A080F900F900F900F9089E9BE
S1130AF091E20E9481080D9791F589E991E2892F8D
S1130B008F9389E991E28F9383E391E2892F8F9305
S1130B1083E391E28F930E948A080F900F900F90C5
S1130B200F90809197218F5F809397211092AE212F
S1130B3080919721882F90E0292F2F938F9388E31A
S1130B4091E2892F8F9388E391E28F930E948A0820
S1130B500F900F900F900F900E949A0204C2809100
S1130B60AE21853009F0FFC10E949A02FCC169E9F7
S1130B7071E2CE0101960E947808892B91F589E9EA
S1130B8091E2892F8F9389E991E28F9383E391E234
S1130B90892F8F9383E391E28F930E948A080F90A9
S1130BA00F900F900F90809197218F5F80939721E2
S1130BB01092AE2180919721882F90E0292F2F93B6
S1130BC08F9388E391E2892F8F9388E391E28F9347
S1130BD00E948A080F900F900F900F900E949A0223
S1130BE0C4C18091AE21863008F0BFC18091AE218E
S1130BF08F5F8093AE210E949A02B7C169E971E2C6
S1130C008AE491E20E947808892B91F589E991E2BE
S1130C10892F8F9389E991E28F9383E391E2892F5E
S1130C208F9383E391E28F930E948A080F900F9031
S1130C300F900F90809197218F5F8093972110924E
S1130C40AE2180919721882F90E0292F2F938F93A5
S1130C5088E391E2892F8F9388E391E28F930E9436
S1130C608A080F900F900F900F900E949A027FC1F4
S1130C708091AE21863008F07AC18091AE218F5FD9
S1130C808093AE210E949A0272C169E971E2CE0199
S1130C9001960E947808892B91F589E991E2892FC0
S1130CA08F9389E991E28F9383E391E2892F8F9364
S1130CB083E391E28F930E948A080F900F900F9024
S1130CC00F90809197218F5F809397211092AE218E
S1130CD080919721882F90E0292F2F938F9388E379
S1130CE091E2892F8F9388E391E28F930E948A087F
S1130CF00F900F900F900F900E949A023AC180912A
S1130D00AE21863008F035C18091AE218F5F80938B
S1130D10AE210E949A022DC169E971E283E591E254
S1130D200E947808892B91F589E991E2892F8F93A4
S1130D3089E991E28F9383E391E2892F8F9383E38F
S1130D4091E28F930E948A080F900F900F900F905A
S1130D50809197218F5F809397211092AE2180918B
S1130D609721882F90E0292F2F938F9388E391E286
S1130D70892F8F9388E391E28F930E948A080F90C2
S1130D800F900F900F900E949A02F5C08091AE21AF
S1130D90863008F0F0C08091AE218F5F8093AE2141
S1130DA00E949A02E8C069E971E280E691E20E9439
S1130DB07808892B91F5809197218F5F80939721F3
S1130DC01092AE2189E991E2892F8F9389E991E20A
S1130DD08F9383E391E2892F8F9383E391E28F933F
S1130DE00E948A080F900F900F900F908091972186
S1130DF0882F90E0292F2F938F9388E391E2892FF6
S1130E008F9388E391E28F930E948A080F900F904A
S1130E100F900F900E949A02B0C08091AE2186304C
S1130E2008F0ABC08091AE218F5F8093AE210E9409
S1130E309A02A3C069E971E28AE691E20E94780805
S1130E40892B91F589E991E2892F8F9389E991E2C0
S1130E508F9383E391E2892F8F9383E391E28F93BE
S1130E600E948A080F900F900F900F908091972105
S1130E708F5F809397211092AE2180919721882FC4
S1130E8090E0292F2F938F9388E391E2892F8F93FA
S1130E9088E391E28F930E948A080F900F900F903D
S1130EA00F900E949A026BC08091AE21863008F0A8
S1130EB066C08091AE218F5F8093AE210E949A021A
S1130EC05EC069E971E288E791E20E947808892BA3
S1130ED081F589E991E2892F8F9389E991E28F93D2
S1130EE083E391E2892F8F9383E391E28F930E94AE
S1130EF08A080F900F900F900F901092AE2181E00E
S1130F008093962180919721882F90E0292F2F9309
S1130F108F9388E391E2892F8F9388E391E28F93F3
S1130F200E948A080F900F900F900F900E949A02CF
S1130F3028C08091AE21863020F58091AE218F5F4C
S1130F408093AE210E949A021CC000001BC00000C6
S1130F5019C0000017C0000015C0000013C0000035
S1130F6011C000000FC000000DC000000BC0000045
S1130F7009C0000007C0000005C0000003C0000055
S1130F8001C0000000002396CDBFDEBFDF91CF91EA
S1130F900895CF93DF93CDB7DEB780E991E2892F2F
S1130FA08F9380E991E28F930E948A080F900F90AB
S1130FB00000DF91CF910895CF93DF9300D0CDB798
S1130FC0DEB789836A837B8389818A3031F48A819D
S1130FD09B81BC018DE00E94DC07000080EA98E060
S1130FE0FC018181882F90E080729927892BB1F3CD
S1130FF080EA98E02981FC01208380E090E0239638
S1131000CDBFDEBFDF91CF910895CF93DF93CDB7EE
S1131010DEB780E496E028E0FC01258380E496E0D6
S113102028E0FC01218380EA98E0FC01178280EA31
S113103098E02CE0FC01268380EA98E0FC0113820E
S113104080EA98E023E0FC01258380EA98E028E028
S1131050FC01248380E090E28093B4219093B52135
S11310600000DF91CF910895CF93DF93CDB7DEB722
S11310700E9405080E947E010E9449080E94FA010C
S11310800E949A028091AF218130E1F71092AF2142
S1131090F9CFCF93DF93CDB7DEB780E590E020E5BD
S11310A030E0F90120812260FC012083000080E50A
S11310B090E0FC018181882F90E082709927892B30
S11310C0B1F384E390E028EDFC01208380E490E018
S11310D021E0FC0120830000DF91CF910895EE0F01
S11310E0FF1F881F8BBF0790F691E02D1BBE19943C
S11310F0FB01DC018D91019080190110D9F3990B4A
S11311000895FC0101900020E9F7809590958E0FD9
S11311109F1F0895CF93DF93CDB7DEB7AE014A5F2B
S11311205F4FFA0161917191AF018091B421909167
S1131130B5210E949E08DF91CF9108952F923F928E
S11311404F925F926F927F928F929F92AF92BF92D3
S1131150CF92DF92EF92FF920F931F93CF93DF937F
S1131160CDB7DEB72B97CDBFDEBF6C017B018A0103
S1131170FC0116821782838181FFCCC1CE010196C6
S11311803C01F6019381F70193FD859193FF8191D1
S11311907F01882309F4BAC1853239F493FD85911E
S11311A093FF81917F01853229F4B60190E00E947A
S11311B0B80AE7CF912C212C312CFFE1F315D8F09C
S11311C08B3279F038F4803279F08332A1F4232D14
S11311D020611DC08D3261F0803369F4232D2160BC
S11311E016C0832D8260382EE32DE4603E2E2AC083
S11311F0F32DF8601DC037FC2DC020ED280F2A30D8
S113120040F08E32B9F436FC81C1232D2064322E95
S113121019C036FE06C08AE0989E200D1124922E35
S113122011C0EAE02E9E200D1124222EF32DF0622F
S11312303F2E08C08C3621F4832D8068382E02C0DE
S1131240883641F4F70193FD859193FF81917F01E5
S11312508111B3CF982F9F7D9554933028F40C5F60
S11312601F4F9FE399830DC0833631F0833771F0AC
S1131270833509F059C021C0F801808189830E5F4C
S11312801F4F88248394912C530113C02801F2E04A
S11312904F0E511CF801A080B18036FE03C0692DA9
S11312A070E002C06FEF7FEFC5010E94AD0A4C01F0
S11312B08201F32DFF773F2E16C0280122E0420E53
S11312C0511CF801A080B18036FE03C0692D70E086
S11312D002C06FEF7FEFC5010E94A20A4C01F32DFB
S11312E0F0683F2E820133FC1BC0822D90E08816EB
S11312F09906B0F4B60180E290E00E94B80A2A94FC
S1131300F4CFF50137FC859137FE81915F01B60179
S113131090E00E94B80A21102A9421E0821A9108D0
S11313208114910471F7E8C0843611F0893641F5CF
S1131330F80137FE07C060817181828193810C5F5F
S11313401F4F08C060817181072E000C880B990B18
S11313500E5F1F4FF32DFF763F2E97FF09C0909528
S11313608095709561957F4F8F4F9F4FF0683F2E0A
S11313702AE030E0A3010E94F40A882E861845C0B2
S1131380853731F4232D2F7EB22E2AE030E025C09C
S1131390932D997FB92E8F36C1F018F4883579F0E2
S11313A0B5C0803719F0883721F0B0C0E92FE0616B
S11313B0BE2EB4FE0DC0FB2DF460BF2E09C034FE5A
S11313C00AC0292F2660B22E06C028E030E005C0EE
S11313D020E130E002C020E132E0F801B7FE07C0AE
S11313E060817181828193810C5F1F4F06C060818F
S11313F0718180E090E00E5F1F4FA3010E94F40A08
S1131400882E8618FB2DFF773F2E36FE0DC0232D28
S11314102E7FA22E891458F434FE0BC032FC09C06E
S1131420832D8E7EA82E05C0B82CA32C03C0B82C07
S113143001C0B92CA4FE0FC0FE01E80DF11D80818E
S1131440803321F49A2D997EA92E09C0A2FE06C0EC
S1131450B394B39404C08A2D867809F0B394A3FCA2
S113146011C0A0FE06C0B21488F4280C922C9B185C
S11314700EC0B21460F4B60180E290E00E94B80A93
S1131480B394F7CFB21418F42B1802C0982C212C63
S1131490A4FE10C0B60180E390E00E94B80AA2FE48
S11314A017C0A1FC03C088E790E002C088E590E083
S11314B0B6010CC08A2D867859F0A1FE02C08BE2D9
S11314C001C080E2A7FC8DE2B60190E00E94B80A58
S11314D0891438F4B60180E390E00E94B80A9A9423
S11314E0F7CF8A94F301E80DF11D8081B60190E0F5
S11314F00E94B80A8110F5CF222009F442CEB60129
S113150080E290E00E94B80A2A94F6CFF601868120
S1131510978102C08FEF9FEF2B96CDBFDEBFDF9187
S1131520CF911F910F91FF90EF90DF90CF90BF90DC
S1131530AF909F908F907F906F905F904F903F906F
S11315402F900895FC010590615070400110D8F768
S1131550809590958E0F9F1F0895FC0161507040F7
S113156001900110D8F7809590958E0F9F1F0895D4
S11315700F931F93CF93DF93FB01238121FD03C0BE
S11315808FEF9FEF2CC022FF16C046815781248124
S113159035814217530744F4A081B1819D012F5F27
S11315A03F4F208331838C93268137812F5F3F4FB8
S11315B02683378314C08B01EC01FB010084F18581
S11315C0E02D1995892BE1F6D80116968D919C9101
S11315D01797019616968D939C931797CE01DF91DA
S11315E0CF911F910F910895FA01AA27283051F144
S11315F0203181F1E8946F936E7F6E5F7F4F8F4F40
S11316009F4FAF4FB1E03ED0B4E03CD0670F781F9E
S1131610891F9A1FA11D680F791F8A1F911DA11D83
S11316206A0F711D811D911DA11D20D009F46894BC
S11316303F912AE0269F11243019305D3193DEF664
S1131640CF010895462F4770405D4193B3E00FD01A
S1131650C9F7F6CF462F4F70405D4A3318F0495D05
S113166031FD4052419302D0A9F7EACFB4E0A695E8
S11316709795879577956795BA95C9F7009761050A
S1131680710508959B01AC010A2E06945795479560
S113169037952795BA95C9F7620F731F841F951F55
S10B16A0A01D0895F894FFCF8A
S11316A80000000200000000DC07000000004154B4
S11316B82B4353510041542B4353510A0D004154B9
S11316C82B435245473F0041542B435245473F0A59
S11316D80D0041542B43474143543F0041542B438D
S11316E8474143543F0A0D0041542B434D45453D62
S11316F8310041542B434D45453D310A0D004154B9
S11317082B43474154543D310041542B43535454C3
S11317183D22696E7465726E65742E742D64312E63
S11317286465220041542B435354543D22696E741A
S113173865726E65742E742D64312E6465220A0DEB
S11317480041542B43494943520041542B434949CE
S113175843520A0D0041542B434946535200415405
S11317682B43494653520A0D0041542B43495053C5
S1131778544152543D22544350222C2237342E31A2
S113178832342E3139342E323532222C223830225A
S11317980A0D0041542B434950434C4F53453D30A7
S11317A80041542B4346554E3D310041542B435080
S11317B8494E3F0041542B434950534552564552D4
S11317C83D312C38300041542B4349505354415433
S11317D855530025730A0D0025640A0D00536368E8
S11317E8726974742025640A0D00434C4F534520D4
S11317F84F4B0053494D2069732072656164790029
S1131808534552564552204F4B0033372E38322E0B
S11318183137382E3231340053544154453A205329
S11318284552564552204C495354454E494E47005B
S109183868616C6C6F0096
S9030000FC
