:100000000C94FA000C940A010C940A010C940A0155
:100010000C940A010C940A010C940A010C940A0134
:100020000C940A010C940A010C940A010C940A0124
:100030000C940A010C940A010C940A010C940A0114
:100040000C940A010C940A010C940A010C940A0104
:100050000C940A010C940A010C940A010C940A01F4
:100060000C940A010C940A010C940A010C940A01E4
:100070000C940A010C940A010C940A010C940A01D4
:100080000C940A010C940A010C940A010C940A01C4
:100090000C940A010C940A010C940A010C940A01B4
:1000A0000C940A010C940A010C940A010C940A01A4
:1000B0000C940A010C940A010C940A010C940A0194
:1000C0000C940A010C940A010C940A010C940A0184
:1000D0000C940A010C940A010C940A010C940A0174
:1000E0000C940A010C940A010C940A010C940A0164
:1000F0000C940A010C940A010C940A010C940A0154
:100100000C940A010C940A010C940A010C940A0143
:100110000C940A010C940A010C940A010C940A0133
:100120000C940A010C940A010C940A010C940A0123
:100130000C940A010C940A010C940A010C940A0113
:100140000C940A010C940A010C940A010C940A0103
:100150000C940A010C940A010C940A010C940A01F3
:100160000C940A010C940A010C940A010C940A01E3
:100170000C940A010C940A010C940A010C940A01D3
:100180000C940A010C940A010C940A010C940A01C3
:100190000C940A010C940A010C940A010C940A01B3
:1001A0000C940A010C940A010C940A010C940A01A3
:1001B0000C940A010C940A010C940A010C940A0193
:1001C0000C940A010C940A010C940A010C940A0183
:1001D0000C940A010C940A010C940A010C940A0173
:1001E0000C940A010C940A010C940A010C940A0163
:1001F0000C940A0111241FBECFEFCDBFDFE3DEBF99
:1002000000E00CBF18BE19BE1ABE1BBE0E9416022B
:100210000C94BA030C940000CF93DF931F921F92AB
:10022000CDB7DEB789836A838981880F898380E8A7
:1002300094E02A81222311F0298102C029812160C2
:10024000FC012683000080E894E0FC018481882F73
:1002500090E080749927892B31F480E894E0FC01C8
:100260008481882384F780E894E0FC018481882FCE
:1002700090E08071992721E0892B09F020E0822FFE
:100280000F900F90DF91CF910895CF93DF93CDB76B
:10029000DEB780E894E023E0FC0123830000DF91D7
:1002A000CF910895CF93DF93CDB7DEB780E894E088
:1002B00027E0FC0123830000DF91CF910895CF93C5
:1002C000DF93CDB7DEB780E894E022E0FC01238322
:1002D0000000DF91CF910895CF93DF931F921F927B
:1002E000CDB7DEB789839A83000080E894E0FC01F3
:1002F0008481882F90E080749927892B31F480E8DD
:1003000094E0FC018481882384F780E894E0FC0178
:10031000278189819A81FC01208380E894E0FC0197
:100320008481882F90E084709927892B51F080E890
:1003300094E0FC018481882F90E080749927892BB8
:1003400019F481E090E002C080E090E081700F90AD
:100350000F90DF91CF910895CF93DF93CDB7DEB7A4
:1003600080E496E020E436E0F9012089277C2861CA
:10037000FC01208B80E496E020E436E0F90121893D
:10038000277C2861FC01218B80E894E025E0FC01BA
:10039000258380E894E028E0FC01218380E894E054
:1003A00021E0FC0124830000DF91CF910895CF93D9
:1003B000DF93CDB7DEB72797CDBFDEBF8B836C83CE
:1003C0007D834E835F8319821A8260E08B810E9455
:1003D0000C01982F81E089278823B9F00E944501FC
:1003E0001FC02C813D8189819A81820F931F0E94B9
:1003F0006C01982F81E08927882379F40E945F019E
:1004000089819A81019689839A8329813A818E8193
:100410009F812817390728F301C000000E9452016C
:100420002796CDBFDEBFDF91CF910895CF93DF93A5
:10043000CDB7DEB76197CDBFDEBF0E94AC018FEFB5
:10044000888B8FEF898B1982CE01409642E050E075
:10045000BC0182EE0E94D70180E090E0AAE7B4E4FC
:100460008A839B83AC83BD8320E030E04AEF53E472
:100470006A817B818C819D810E942503DC01CB01F7
:100480008E839F83A887B98720E030E040E85FE350
:100490006E817F81888599850E949F0288232CF434
:1004A00081E090E08A879B873FC020E03FEF4FE7E5
:1004B00057E46E817F81888599850E9420031816F4
:1004C0004CF520E030E040E251E46A817B818C8190
:1004D0009D810E942503DC01CB01BC01CD010E945E
:1004E000A402DC01CB018A879B870FC082E390E0E6
:1004F0008C879D878C859D850197F1F78C879D87DB
:100500008A859B8501978A879B878A859B85892B0E
:1005100069F714C06E817F81888599850E94A40245
:10052000DC01CB018A879B878A859B858E879F8785
:100530008E859F850197F1F78E879F8785CF0E94D3
:10054000D30208F481E008950E94FF0288F09F57CB
:1005500098F0B92F9927B751B0F0E1F0660F771FE7
:10056000881F991F1AF0BA95C9F714C0B13091F0DD
:100570000E941903B1E008950C941903672F782F96
:100580008827B85F39F0B93FCCF3869577956795A2
:10059000B395D9F73EF490958095709561957F4F0E
:1005A0008F4F9F4F0895990F0008550FAA0BE0E851
:1005B000FEEF16161706E807F907C0F01216130625
:1005C000E407F50798F0621B730B840B950B39F465
:1005D0000A2661F0232B242B252B21F408950A26CB
:1005E00009F4A140A6958FEF811D811D089557FD47
:1005F0009058440F551F59F05F3F71F04795880F91
:1006000097FB991F61F09F3F79F087950895121627
:1006100013061406551FF2CF4695F1DF08C01616D3
:1006200017061806991FF1CF869571056105089484
:100630000895E894BB2766277727CB0197F908959B
:100640000E94D30208F48FEF08950E9438030C949F
:10065000A9030E949B0338F00E94A20320F0952377
:1006600011F00C9492030C94980311240C941A0327
:100670000E94F70270F3959FC1F3950F50E0551F4C
:10068000629FF001729FBB27F00DB11D639FAA27E7
:10069000F00DB11DAA1F649F6627B00DA11D661F36
:1006A000829F2227B00DA11D621F739FB00DA11D57
:1006B000621F839FA00D611D221F749F3327A00D11
:1006C000611D231F849F600D211D822F762F6A2FAD
:1006D00011249F5750409AF0F1F088234AF0EE0F12
:1006E000FF1FBB1F661F771F881F91505040A9F73F
:1006F0009E3F510580F00C9492030C941A035F3FC7
:10070000E4F3983ED4F3869577956795B795F7957A
:10071000E7959F5FC1F7FE2B880F911D96958795F2
:1007200097F9089597F99F6780E870E060E0089571
:100730009FEF80EC089500240A94161617061806F9
:100740000906089500240A941216130614060506D5
:100750000895092E0394000C11F4882352F0BB0F66
:1007600040F4BF2B11F460FF04C06F5F7F4F8F4FC9
:080770009F4F0895F894FFCF9C
:00000001FF
